:020000040000fa
:080000000002040000000000f2
:020000040000fa
:10040000cf4322000e7f22000e0188000000000072
:100410000c000700202d290001002000110007001a
:10042000000020000000e000020032000000020096
:100430000000000050370200000000000040da0019
:100440000000fe004440a900202d20000000e00034
:100450000300320010002000a00188004440a800e2
:100460000000060091018800800078000000eb0089
:1004700015003700e280400032a0b4009101ba00bc
:10048000e280400032a0b4009102ba00e280400055
:1004900032a0b4000002eb00472bde00f507b200eb
:1004a000602ce10004003a000059eb008301e900f0
:1004b000fdff3e00040037006128e100010032002a
:1004c0000082eb00040007001101ba000200e00006
:1004d000e8ff3a00000006003159ba008301e90044
:1004e0000c0032002159ba008301e90008003200f3
:1004f0000400e00003003a00e280400032a0b400b3
:10050000f5ff370011d9ba008301e900faff3a007c
:100510008100e800e180400032a0b4000000060045
:1005200000000000000000000000000000000000cb
:1005300000000000000000000000000000000000bb
:1005400000000000000000000000000000000000ab
:10055000000000000000000000000000000000009b
:10056000000000000000000000000000000000008b
:10057000000000000000000000000000000000007b
:10058000000000000000000000000000000000006b
:10059000000000000000000000000000000000005b
:1005a000000000000000000000000000000000004b
:1005b000000000000000000000000000000000003b
:1005c000000000000000000000000000000000002b
:1005d000000000000000000000000000000000001b
:1005e000000000000000000000000000000000000b
:1005f00000000000000000000000000000000000fb
:1006000000000000000000000000000000000000ea
:1006100000000000000000000000000000000000da
:1006200000000000000000000000000000000000ca
:100630000040da000000fe0022c2bf00610060003e
:100640000000060020c2bf0066406000e64f500078
:1006500002003a00301180000000060030118000d6
:10066000f00fb200000006000002780042c0bf0098
:100670000080fb00c502de0091028000ff3ffc000d
:1006800000ceb3004260b700910288000000200055
:1006900090018800c0bf2a009001ba000308b20090
:1006a00005003a0043c7bf004400de006700600059
:1006b000800f520004003a0092028000ff3ffc00cd
:1006c000c528dd001f003700103a8000a209200075
:1006d0008107200036742000014b7800024b78001f
:1006e000044b78000004a0000080fb00720520008d
:1006f0006104200024742000014a7800024a780036
:10070000004a780083007800820c20000100370046
:100710008100e80042c7bf000008a30002003200c9
:10072000828f5000faff3a00e7c0620042c7bf0064
:100730000008a3000900320092028000ff3ffc0085
:10074000c508dd0042c0bf007f406000014070006e
:1007500042e0b7009202880000000500920280008b
:10076000ff3ffc00c508dd0042c0bf007f406000c5
:100770000140700042e0b7009202880010000500be
:100780002800fa00889fbe008a9fbe008c9fbe0092
:1007900007067800878669000c003b000304780098
:1007a0008704780008f0a10009f0a100840f500030
:1007b000858f5800860f5900890f5c0003003300b5
:1007c0000cf0a20001003a000cf0a1009f0007000d
:1007d0006400e1005f003200780147006408e10036
:1007e000610032006c014700748557003200be0082
:1007f0001201be003a04be001a05be001e0390009e
:10080000be0a90008503530006003d000004fd0071
:100810008104fd000205fd008305fd008703ea0059
:10082000050378000df8a3000400320060041400f2
:10083000e0841c0060051d00e0851d006022b800fa
:100840007d0320000d38e1008006eb000b0039002d
:100850004433dd00f300b200830173003900370038
:10086000848272000d027800e10664008b85d1005d
:100870000a85d3008984d3000884d3008703e90064
:10088000f7ff3b0008004000898048000a0149004a
:100890008b81490004003b0060001000e0801800dc
:1008a00060011900e08119000358a300090032001b
:1008b0008d82720084827200610260008301d10027
:1008c0000281d3008180d3000080d3000603e800ba
:1008d0001b0037000348a30017003a000600e000a1
:1008e000170034000603e9000d00a30000004800d3
:1008f0008180480002014900838149000348a30028
:100900000f003a000600e000090034000603e90089
:1009100000004000818048000201490083814900b5
:1009200001003a000003eb000348a300f5ff32008a
:100930006022b80002003700848272006182660083
:100940001600070003f0a1000cf0a70003f0a000c0
:1009500052003700640147006408e10002003a00d9
:100960000df8a3004a003a003200be001201be009a
:100970004a0037008f1fd1001f0207008f87e90050
:100980000000e00000000600809feb001a02070054
:100990008f87e9000000e00000000600180020003a
:1009a00057002000080453000d003d000600200001
:1009b00097fc2f000740e1001e0034008482720083
:1009c000610260008301d1000281d3008180d300e5
:1009d0000080d3000804e800f8ff3a004700200038
:1009e0006104600005047400040464000d0032001a
:1009f00061004000e080480060014900e08149005a
:100a000003b8a500070032000603e8006538e100de
:100a100004003a008301d1000281d3008180d30019
:100a20000080d300f87f20000830e100030035008b
:100a3000080378006000b8006011b8004433dd009e
:100a4000f300b20083017300000006006804470051
:100a50000294be000094be00fc0447008694be00d1
:100a60008494be00090078002c020700080078007a
:100a70002a02070099007800814f70000b003b00ac
:100a80000800be00050207004f00b1000300370058
:100a9000f3ff2700f2ff2f006110b9004f06be00e0
:100aa0004f05be004f04be000080fa0000000600a3
:100ab0004f89de00820178003f0237002800fa00eb
:100ac000889fbe008a9fbe008c9fbe0003866b007d
:100ad000deff07000028a30064003a000128a300fd
:100ae00067003a000008a30062003a000108a30072
:100af00065003a001e009000be089000810640008c
:100b0000ed3fb100f4805700ee019000111ab800db
:100b10008e099000311bb8009e099000311cb8006e
:100b2000511db800f485570046000700fe019000f3
:100b30003a0007008b85e8003e0007008e09900010
:100b400040000700ee019000340007008b85e800ac
:100b5000380007008e099000400007009e099000b1
:100b60001b18b800890440000a854800fe01900067
:100b7000340007008b85e80038000700ee01900084
:100b8000300007008e0990001b18b800890440004f
:100b90000a8548000a98a30008003a0004024200af
:100ba00085824a0006034b0087834b0008044c00f3
:100bb00089844c000a054d008d06e900848272008c
:100bc000850273004c3add0085027200010032009c
:100bd00015002000443ade001400b2004538de0063
:100be000cb45dd000b007000c540de00cb4ddd00c5
:100bf0008b8070004549de00cb55dd000b01710094
:100c0000c551de000d03780064ff070003f0a1006a
:100c10000cf0a70003f0a000a0ff37001b18b800dd
:100c20008502400006834800e0834b0060044c00ce
:100c3000070037001b18b8000603400087834800f0
:100c4000faff37001b18b8008703400008844800eb
:100c5000e0844c0060054d00000006001b18b80041
:100c60000804400089844800faff37000108a30007
:100c700087ff3a005800be005801be00e3ff37006e
:100c80000008a30082ff3a0009047800f9ff37004a
:100c90006022b800060220000000d0008180d2004f
:100ca0000482d2008582d2000000a000020252001d
:100cb00083825a00030031000202420083824a000c
:100cc0000000a1000603e900f3ff3a00000006005f
:100cd000881f7800000478005001be004000be006c
:100ce00004004000858048000601490087814900d2
:100cf000009cbe000294be000400e1000588e100f3
:100d00000690e1000798e10002003100680044000d
:100d10001008e8004f04780000000600f487470040
:100d2000889fbe008a9fbe008c9fbe008e1f7800e9
:100d30000205be000004be00d4b79f00e5b79f00c7
:100d4000f6b79f0087bf9f000000eb00c0b79f0071
:100d5000b0b79f00a0b79f0090b79f0080b79f00db
:100d60000d042000bfb097004fb097000001400075
:100d70000000e0000f003d004f08de0000007100a1
:100d8000c0b79f004d00070001003d001200200089
:100d90005000070001003d00120020005500070030
:100da00061000700660007000f004000c8ff070051
:100db000220037004f08de0000067100ccb79f000c
:100dc0003e00070001003d00120020004100070026
:100dd00001003d00120020004600070052000700fd
:100de0000fb297009fb297002fb39700bfb3970041
:100df000590007000000520081805a0002015b0088
:100e000083815b0080b79f0091b79f00a2b79f00ce
:100e1000b3b79f000007eb004f0007000020e10080
:100e200001a8e10002b0e10003b8e10001003100d7
:100e30001e0020000e005600c0b79f004fb2970062
:100e40000400e00007003500100020000100200031
:100e50006011b80008047000898470000a057100f0
:100e60008b8571008d06e900beff3a000400e000aa
:100e700003003d00320007000f00400094ff070010
:100e80004fa897000000e00004003a000fb497005c
:100e90009fb497002fb59700bfb597000800be001c
:100ea0000a01be004f0778004f06be004f05be0086
:100eb0004f04be004f01b100000006000180400059
:100ec00090b79f000001eb008fb097000100e00099
:100ed000000006000200700090b79f0001804000f3
:100ee00080b79f000001eb00ffa897000100e00021
:100ef000000006000200700080b79f0001804000e3
:100f00006faa9700cf20de0001007000f0af9f00b5
:100f1000040242000800be000a01be004f18de00b5
:100f20000002720000000600e4af9f0008044400c5
:100f300089844c000a054d008b854d000000060099
:100f40003fb29700cfb297005fb39700efb397001f
:100f500000fe2f00000006003fb09700cfb09700c2
:100f60005fb19700efb1970000000600881f78007e
:100f700018002000881f780068ff07008f87e900ad
:100f80004f04780000000600801feb0063ff07009d
:100f90008f87e90000000600889fbe008a9fbe0080
:100fa0008c1f78000205be000004be00e00f500058
:100fb000e08f5800e00f5900e08f59000c003d0011
:100fc0006000b8006011b80008045000898458001f
:100fd0000a0559008b8559001c0020001f000700de
:100fe00008003d00180007000006eb000500370070
:100ff0000006eb001900070002003d000f0007008b
:101000001c0020000800be000a01be00d7ff070038
:101010000203be000002be000c00e000010032002e
:10102000060007000400be000601be004f0678005f
:101030004f05be004f04be00000006006000b8006f
:101040006011b8000000370004025000858258008b
:10105000060359008783590000000600e00f520084
:10106000e08f5a00e00f5b00e08f5b00000006009d
:10107000889fbe008a9fbe008c1f78000205be00bc
:101080000004be00e00f5000e08f5800e00f590050
:10109000e08f59000a003d006000b8006011b80000
:1010a00008045000898458000a0559008b855900ae
:1010b0001c0020001800070007003d000500370055
:1010c0000006eb001400070003003d006000b800bc
:1010d0006011b800150007000800be000a01be003c
:1010e000a9ff07000203be000002be000c00e000e2
:1010f000030032006000b8006011b8000b00070068
:101100000400be000601be004f0678004f05be0079
:101110004f04be0000000600e00f5200e08f5a00ae
:10112000e00f5b00e08f5b0000000600040250004f
:101130008582580006035900878359000000060085
:10114000889fbe008a9fbe008c1f78000205be00eb
:101150000004be000006eb00e00f5000e08f5800d6
:10116000e00f5900e08f590007003d006000b80013
:101170006011b80008045000898458000a0559001d
:101180008b8559001c002000e00f5200e08f5a00b0
:10119000e00f5b00e08f5b0002003d000f000700e6
:1011a0000c00a2000800be000a01be00b900070042
:1011b0000203be000002be000c00e000010032008d
:1011c000060007000400be000601be004f067800be
:1011d0004f05be004f04be00000006006000b800ce
:1011e0006011b800040250008582580006035900bf
:1011f0008783590000000600889fbe008a9fbe00ba
:101200008c9fbe000404be000605be00809fbe0089
:10121000829fbe002f000700040678000800be0071
:101220000a01be002b000700840678004f03be00b1
:101230004f02be008d4f76007fb097001300330041
:10124000f0ff2f008b8f6b0006003b000d06660041
:101250000c00a7000a00370007f0a60010002000cd
:101260000a003700880f5200898f5a008a0f5b00ee
:101270008b8f5b00030039001000200001003e004e
:101280000000200007f0a7000000ea004f06be00a3
:101290004f05be004f04be0000000600e48240007f
:1012a0001078a30007003200640240001178a30008
:1012b0003400be001401be00040032000330a70059
:1012c000000006003500be001501be000330a0007e
:1012d0000000060005ff27000582610007003200bc
:1012e0000428e10001003200240005000600070088
:1012f00001003a0044000500040805000200070050
:10130000f9ff3a00140005006f826100810270004d
:1013100085027100850272000000060080007800de
:101320005002be005003be004439de00f700b20098
:10133000f37f200003016100090032000218e10080
:1013400016003a00850172008301730083817300e7
:101350000008200015003a0040002000130037006c
:1013600085017200830173008381730005003a00d8
:1013700004a8be0006a8be00100020000b00370025
:101380000201e9000402420085824a0006034b0084
:1013900087834b000748a300f9ff32000740a000f5
:1013a00004a8be0006a8be0020002000800098000f
:1013b0009200980000000600889fbe008304780019
:1013c0000300e0002c00350003003c0000827000a8
:1013d000040271002600320036432000c5002000c0
:1013e0008383cf000a0039000541b1008283cf001a
:1013f000070039000541b1008183cf0004003900a6
:101400000541b1008083cf00010039000541b100e2
:1014100085c353006022b800120032000a003b006e
:1014200084827200610260008301d1000281d300d6
:101430008180d3000080d3000603e8008743e800e2
:10144000f7ff3a00070037000000400081804800a5
:1014500002014900838149000603e9008743e9004e
:10146000f9ff3a004dfd070009f0a70003f0a000c6
:101470004f04be000000060060001000e08018006d
:1014800060011900e0811900d3ff3b00033e2c00ee
:10149000f7ff3700889fbe008a9fbe008c9fbe006a
:1014a0000404b8000506b8008904460060854e00b3
:1014b0000606b8000a054600e0854e000706b8009b
:1014c0008b054600040eb800890446000a854e00cc
:1014d000e0854d00050eb8000a0546008b854e00dc
:1014e000060eb8008b0546000416b8000a05460033
:1014f0008b854e000516b8008b054600041eb8000b
:101500008b0546000800be000a01be004f06be0063
:101510004f05be004f04be00000006008001eb0036
:101520000200370061f079008301e800828f5100ea
:10153000fcff3a000000060000027800808f500097
:101540000a00310082814000808f51000700360080
:10155000020240008000eb00436278008100e80056
:10156000828f500007003200fbff37000200e000ce
:101570000400320002814000315a7800828f50000e
:10158000fdff3a00000006008001eb00020037007a
:10159000817178008301e800828f5100fcff3a00de
:1015a00000000600800078003004e000feff3a00f2
:0c15b000010050000000e90000000600ef
:020000040000fa
:020000040001f9
:0457f00033ff000083
:020000040000fa
:020000040001f9
:0457f400c0fc0000f5
:020000040000fa
:020000040001f9
:0457f8008f09000015
:020000040000fa
:020000040001f9
:0457fc00603f00000a
:020000040000fa
:10000800180300001803000018030000180300007c
:10001800180300001803000018030000180300006c
:10002800180300001803000018030000180300005c
:10003800180300001803000018030000180300004c
:10004800b83d00001803000018030000d239000072
:10005800180300001803000018030000180300002c
:10006800180300001803000018030000180300001c
:10007800c2a00000180300001803000018030000c5
:10008800180300001803000018030000f03c0000eb
:1000980018030000180300001803000018030000ec
:1000a80018030000180300001803000018030000dc
:1000b80018030000180300001803000018030000cc
:1000c80018030000180300001803000018030000bc
:1000d80018030000180300001803000018030000ac
:1000e800180300001803000018030000180300009c
:1000f800180300001803000018030000180300008c
:10010800180300001803000018030000180300007b
:10011800180300001803000018030000180300006b
:10012800180300001803000018030000180300005b
:10013800180300001803000018030000180300004b
:10014800180300001803000018030000180300003b
:10015800180300001803000018030000180300002b
:10016800180300001803000018030000180300001b
:10017800180300001803000018030000180300000b
:1001880018030000180300001803000018030000fb
:1001980018030000180300001803000018030000eb
:1001a80018030000180300001803000018030000db
:1001b80018030000180300001803000018030000cb
:1001c80018030000180300001803000018030000bb
:1001d80018030000180300001803000018030000ab
:1001e800180300001803000018030000180300009b
:0801f8001803000018030000c9
:020000040000fa
:10020800180300001803000018030000180300007a
:10021800180300001803000018030000180300006a
:10022800180300001803000018030000180300005a
:10023800180300001803000018030000180300004a
:10024800b83d00001803000018030000d239000070
:10025800180300001803000018030000180300002a
:10026800180300001803000018030000180300001a
:10027800c2a00000180300001803000018030000c3
:10028800180300001803000018030000f03c0000e9
:1002980018030000180300001803000018030000ea
:1002a80018030000180300001803000018030000da
:1002b80018030000180300001803000018030000ca
:1002c80018030000180300001803000018030000ba
:1002d80018030000180300001803000018030000aa
:1002e800180300001803000018030000180300009a
:1002f800180300001803000018030000180300008a
:100308001803000018030000180300001803000079
:100318001803000018030000180300001803000069
:100328001803000018030000180300001803000059
:100338001803000018030000180300001803000049
:100348001803000018030000180300001803000039
:100358001803000018030000180300001803000029
:100368001803000018030000180300001803000019
:100378001803000018030000180300001803000009
:1003880018030000180300001803000018030000f9
:1003980018030000180300001803000018030000e9
:1003a80018030000180300001803000018030000d9
:1003b80018030000180300001803000018030000c9
:1003c80018030000180300001803000018030000b9
:1003d80018030000180300001803000018030000a9
:1003e8001803000018030000180300001803000099
:0803f8001803000018030000c7
:020000040000fa
:020000040001f9
:041ffc0000020000df
:020000040000fa
:020000040001f9
:041ff800aeba00007d
:020000040000fa
:020000040001f9
:04280000ffff37009f
:020000040000fa
:020000040001f9
:1020000000000000211000004220000063300000aa
:1020100084400000a5500000c6600000e77000008a
:1020200008810000299100004aa100006bb1000066
:102030008cc10000add10000cee10000eff1000046
:102040003112000010020000733200005222000022
:10205000b552000094420000f7720000d662000002
:1020600039930000188300007bb300005aa30000de
:10207000bdd300009cc30000fff30000dee30000be
:10208000622400004334000020040000011400001a
:10209000e6640000c7740000a444000085540000fa
:1020a0006aa500004bb500002885000009950000d6
:1020b000eee50000cff50000acc500008dd50000b6
:1020c0005336000072260000111600003006000092
:1020d000d7760000f666000095560000b446000072
:1020e0005bb700007aa7000019970000388700004e
:1020f000dff70000fee700009dd70000bcc700002e
:10210000c4480000e558000086680000a778000079
:102110004008000061180000022800002338000079
:10212000ccc90000edd900008ee90000aff9000035
:1021300048890000699900000aa900002bb9000035
:10214000f55a0000d44a0000b77a0000966a0000f1
:10215000711a0000500a0000333a0000122a0000f1
:10216000fddb0000dccb0000bffb00009eeb0000ad
:10217000799b0000588b00003bbb00001aab0000ad
:10218000a66c0000877c0000e44c0000c55c0000e9
:10219000222c0000033c0000600c0000411c0000e9
:1021a000aeed00008ffd0000eccd0000cddd0000a5
:1021b0002aad00000bbd0000688d0000499d0000a5
:1021c000977e0000b66e0000d55e0000f44e000061
:1021d000133e0000322e0000511e0000700e000061
:1021e0009fff0000beef0000dddf0000fccf00001d
:1021f0001bbf00003aaf0000599f0000788f00001d
:1022000088910000a9810000cab10000eba1000084
:102210000cd100002dc100004ef100006fe1000064
:1022200080100000a1000000c2300000e320000088
:102230000450000025400000467000006760000068
:10224000b983000098930000fba30000dab30000fc
:102250003dc300001cd300007fe300005ef30000dc
:10226000b102000090120000f3220000d232000000
:1022700035420000145200007762000056720000e0
:10228000eab50000cba50000a895000089850000f4
:102290006ef500004fe500002cd500000dc50000d4
:1022a000e2340000c3240000a014000081040000f8
:1022b00066740000476400002454000005440000d8
:1022c000dba70000fab7000099870000b89700006c
:1022d0005fe700007ef700001dc700003cd700004c
:1022e000d3260000f236000091060000b016000070
:1022f0005766000076760000154600003456000050
:102300004cd900006dc900000ef900002fe9000053
:10231000c8990000e98900008ab90000aba9000053
:102320004458000065480000067800002768000057
:10233000c0180000e108000082380000a328000057
:102340007dcb00005cdb00003feb00001efb0000cb
:10235000f98b0000d89b0000bbab00009abb0000cb
:10236000754a0000545a0000376a0000167a0000cf
:10237000f10a0000d01a0000b32a0000923a0000cf
:102380002efd00000fed00006cdd00004dcd0000c3
:10239000aabd00008bad0000e89d0000c98d0000c3
:1023a000267c0000076c0000645c0000454c0000c7
:1023b000a23c0000832c0000e01c0000c10c0000c7
:1023c0001fef00003eff00005dcf00007cdf00003b
:1023d0009baf0000babf0000d98f0000f89f00003b
:1023e000176e0000367e0000554e0000745e00003f
:1023f000932e0000b23e0000d10e0000f01e00003f
:1024000041530000333900003933000020520000ee
:1024100065610000646500007220000046690000ec
:10242000726d000077610000726500007c7c000026
:1024300041530000333900003933000020520000be
:10244000414400004f4e0000205200006561000032
:1024500064650000722000004861000072640000a2
:102460007761000072650000203100002e3000000e
:1024700000410000533300003939000033200000d0
:102480005265000061640000657200002046000093
:10249000697200006d770000617200006520000025
:1024a00025680000687800002e250000686800009c
:1024b000782e00002568000068780000206f00007a
:1024c0006e20000041530000333900003933000012
:1024d00020520000414400004f4e000020520000f6
:1024e0006561000064650000722000004861000022
:1024f0007264000077610000726500002031000006
:102500002e3000000a00000000040000020000005d
:10251000bfaf0000a7a30000a1a00000b0b800005a
:10252000bcbe0000418800008a64000020820000d8
:1025300061700000706c000046690000726d000060
:102540007761000072650000496e0000666f000050
:10255000726d000061740000696f00006e20000061
:102560006e6f000074200000737500007070000032
:102570006f720000746500006400000040020000fb
:102580004202000044020000480200006002000015
:1025900062020000640200006802000005100000f2
:0425a0001a0000001d
:020000040000fa
:1015bc00704480000000e0000a0032005619070059
:1015cc0071448000810f5000060039005419070047
:1015dc0011c0b30000892000014878000000eb0026
:1015ec00010037001000200000000600881f780062
:1015fc00004478004080200010407800884f500054
:10160c0013003200e14f500003003200e24f500053
:10161c0004003a0002003700224a0700010037009c
:10162c00800d0700e14f540003003200e24f5400dc
:10163c0005003a0003003700e03d2200174a07007e
:10164c00010037005e0d070040802000084878003c
:10165c004f0478000000060001000700000006009f
:10166c00b1cfb30000bb2000014878000000060099
:10167c00889fbe008a1f7800504080000000e00068
:10168c001e0034008004eb00c88020000a8020007b
:10169c00080078007744070080c0b300984f100012
:1016ac0011003a00184090000080fb00010020005f
:1016bc00020020000300200004002a00c59a2b0021
:1016cc0036002000070020009afe0700843e200010
:1016dc00050020006033b80021fe070033440700ea
:1016ec0010c0b300004d78008904e800a802b000d7
:1016fc0050408000890f5000e5ff3c004f057800fa
:10170c004f04be0000000600d9ff07000003eb00e9
:10171c008602780014002000e3ad2000064178001a
:10172c0084407800a0bf20005b480700004178008f
:10173c00a1882000804878000004e00002003200fc
:10174c00a0bf200050bd88000280fb0000000600f6
:10175c000100070000000600405d8000104078008a
:10176c000004e00003003200e14f40000e003a009c
:10177c0007003700040b07000040eb001f4d07006b
:10178c00ed0a070000bb20000048eb000900370001
:10179c00fd0a070010c0b300184d070000bb200065
:1017ac000048eb000300370091cfb30000bb2000d2
:1017bc0001487800605d80000048eb0010002000bc
:1017cc00705d8800000006000100070000000600a4
:1017dc00605d80008040eb00015878000158780073
:1017ec0001587800015878000158780001587800a9
:1017fc000158780001587800015878000158780099
:10180c000158780001487800415d80001104e00027
:10181c000f003200a04122001000e0000c0032004a
:10182c0011409000613f220080487800ff4f50002b
:10183c0002003600f0c1b30080487800603f2200ff
:10184c001041780011c0b300a04122003e110700e6
:10185c00415d8000214090000004e0000f00320048
:10186c00c04122001000e0000c003200314090001a
:10187c00713f220080487800ff4f50000200360074
:10188c00f0c1b30080487800703f2200104178000e
:10189c0021c0b300a04122002b110700415d800044
:1018ac00414090000004e0000f003200e0412200b3
:1018bc001000e0000c00320051409000813f2200eb
:1018cc0080487800ff4f500002003600f0c1b30092
:1018dc0080487800803f22001041780041c0b3005e
:1018ec00a041220018110700415d8000614090006a
:1018fc000004e0000f003200004222001000e00063
:10190c000c00320071409000c13f220080487800ea
:10191c00ff4f500002003600f0c1b3008048780041
:10192c00c03f22001041780011c0b30000422200d9
:10193c0005110700415d8000014890000004e000a3
:10194c000f003200204222001000e0000c00320098
:10195c0011489000d13f220080487800ff4f500082
:10196c0002003600f0c1b30080487800d03f22005e
:10197c001041780021c0b30000422200f210070091
:10198c00415d8000214890000004e0000f0032000f
:10199c00404222001000e0000c0032003148900060
:1019ac00e13f220080487800ff4f500002003600d3
:1019bc00f0c1b30080487800e03f2200104178006d
:1019cc0041c0b30000422200df1007000041eb00d1
:1019dc00605d800002487800613f2200605d8000fd
:1019ec009140780011409800713f2200605d8000aa
:1019fc009140780031409800813f2200605d80006a
:101a0c009140780051409800c13f2200605d8000f9
:101a1c009140780071409800d13f2200605d8000b9
:101a2c009140780011489800e13f2200605d8000f1
:101a3c009140780031489800c0002000705d88000b
:101a4c0000bb200002487800000006004e0a070088
:101a5c0002000700380a070000000600889fbe003d
:101a6c00405d8000104078006f4160000080fb00fa
:101a7c004400de000004e00003003a00a94122000b
:101a8c00683f220004003700e14f500025003a0067
:101a9c0009422200c83f2200e24f51000d003200e3
:101aac00e34f510013003200e14f510018003a008f
:101abc0002407800514c0700420620008800780054
:101acc0009007800721107000040eb004b4c070036
:101adc000f00370010c0b300484c07008800780096
:101aec0009007800a31107000040eb00434c0700ed
:101afc000700370010c0b300404c07008800780086
:101b0c0009007800e51107000040eb003b4c070092
:101b1c0018419000a8419000984078000900780086
:101b2c00231207008000eb00715d880000bb2000d1
:101b3c00014878004f04be0000000600445d8000a0
:101b4c00144190000281fb0003002000244090000f
:101b5c004800dd00010020000201400083814800a4
:101b6c00344090008080fb00000020000201400007
:101b7c0083814800a08920001040780041c3b30045
:101b8c00814f500001003600014078008082fb003c
:101b9c004228dd00a68920000600400012009800b3
:101bac0023009800200d2000050040008600400016
:101bbc008048eb00444090000004e0001600320026
:101bcc0010c0b30080487800601020000500400071
:101bdc00d440900001707b00e0162000050040000e
:101bec00e440900001707b00601d20000500400067
:101bfc00f440900001707b00844890008180fb00d1
:101c0c0005814200e223b000144890004800dd003a
:101c1c008080400001317b00244890000004e000eb
:101c2c0019003200200d200005004000a38920007f
:101c3c000300400010c8e800a0132000050040007d
:101c4c00b448900001f07900201a200005004000f3
:101c5c00c448900001f07900a0202000050040004d
:101c6c00d448900001f07900e44890008180fb009a
:101c7c0005814200622ab000744890004800dd00e3
:101c8c008080400001b17900200d2000050040004b
:101c9c00a1892000010040001004e0000100320086
:101cac009148e800a28920009240780030c3b3002c
:101cbc0080cf5000040036000040e8000049780056
:101ccc0050032000010037000180fb0000000600db
:101cdc000100070000000600605d80008040eb0002
:101cec0001587800015878000148780000bb2000aa
:101cfc0001487800405d800010407800e14f5000b2
:101d0c000e00320003003900e24f50002e003a0062
:101d1c0016003700605d80000048eb0041c3b30043
:101d2c00605d800011409800a1892000605d8000fa
:101d3c0091407800214098002b0037008040eb0048
:101d4c00b089200001487800a08920000148780063
:101d5c0011c0b300605d80000148780041c3b3003e
:101d6c00605d8000114098001f003700a0ba200071
:101d7c00f1002000908f100004003e0091cfb300c2
:101d8c0000bb200001487800060037006bff0700fd
:101d9c0041c3b300814f50000200360000bb20004d
:101dac0000c8eb0021c0b300605d800001487800e2
:101dbc0040c3b300a189200011405000615d800038
:101dcc009040980008003700605d800000c8eb0070
:101ddc0041c3b300605d800011409800b1cfb300e7
:101dec0000bb20000148780030002000705d8800a6
:101dfc00000006000100070000000600889fbe00de
:101e0c00405d80008044eb001004e0000b003200c9
:101e1c001040900099cfb300e34f500007003e00f4
:101e2c0059090700415d80007089200091409000a5
:101e3c0001487800400907008044eb00c8ba200034
:101e4c00a2002000f10f200018007800cbfd070045
:101e5c00d1c5b300605d800001487800a15d8000b1
:101e6c00605d8000114098008040eb00605d800058
:101e7c002140980012c0b300605d80003240980091
:101e8c00605d800041409800605d80005240980089
:101e9c00180478006602440081417800a0412200b9
:101eac001000e0000100320082417800c0412200a5
:101ebc009000ea0090807000cf08de008140d000d6
:101ecc0083c07000e24122001200ea001200700090
:101edc004f00de004200dd00014a700071892000d5
:101eec00605d8000914078007140980081c0b30023
:101efc00605d800001489800c0ba20001000780096
:101f0c00e90140000041eb00004222001000e0001b
:101f1c000100320012c0b300204222009000ea00ff
:101f2c0090807000cf08de008140d00082c070002d
:101f3c00424222001200ea00120070004f00de0044
:101f4c004200dd00014070000054a0008049780080
:101f5c00a0002000705d880000bb200009487800bc
:101f6c004f04be0000000600889fbe008a9fbe0082
:101f7c0000447800814478008205780003057800dd
:101f8c00010907000804e0000400350089407800ce
:101f9c000840780015490700020037000840780017
:101fac00ab480700004deb0010002000800d7800be
:101fbc000000eb004f05be004f04be000000060001
:101fcc00889fbe008a1f78000044780001057800c5
:101fdc0082047800ec08070008407800cc48070021
:101fec00804c780010002000000d7800d20807000b
:101ffc000000eb004f0578004f04be000000060007
:10200c00e108070002000700cb08070000000600eb
:10201c00881f7800405d80001004e0000200320050
:10202c00104090005b4b0700415d80002140900008
:10203c000004e0002800320031409000413f2200b3
:10204c0080487800e24f50000300360020c0b300f7
:10205c0080487800050037000004e00003003a00d7
:10206c0011c0b300403f220001487800403f2200dd
:10207c0010417800824078000114a2008180fb009e
:10208c008100e900cf08de00c709dd00d4c2bf0023
:10209c000074a10003407000d4e2b700e1c06000fe
:1020ac0081c04000c5c2bf000014a10001407000f7
:1020bc00c5e2b7000214a2000281fb000201ea0093
:1020cc004f11de004611dd00d4c2bf000064a10038
:1020dc0002407000d4e2b70040002000705d880020
:1020ec00c0ba20001004e800074b0700004c780031
:1020fc00413f2200605d80009140780031409800a3
:10210c0000bb20000048eb004f04780000000600e4
:10211c00881f78004080200011c0b30090cf1000c1
:10212c0001003a000048eb00415d80001104e00022
:10213c0003003200f03d220011419000024878006b
:10214c00214090000004e00003003200003e220019
:10215c003141900002487800414090000004e000ba
:10216c0003003200303e22005141900002487800ba
:10217c00614090000004e00003003200103e220099
:10218c007141900002487800014890000004e00082
:10219c0003003200e03d2200114990000248780013
:1021ac00214890000004e00003003200503e220061
:1021bc003149900002487800414890000004e0004a
:1021cc0003003200203e2200514990000248780062
:1021dc00614890000004e00003003200403e220001
:1021ec00f148900001487800605d800008012000f3
:1021fc00080178008000eb00e0fc0700785d8800a7
:10220c0000bb20000048eb00f13d2200605d800027
:10221c009140780011409800013e2200605d8000e2
:10222c009140780031409800313e2200605d800082
:10223c009140780051409800113e2200605d800072
:10224c009140780071409800e13d2200605d800073
:10225c009140780011489800513e2200605d80004a
:10226c009140780031489800213e2200605d80004a
:10227c009140780051489800413e2200605d8000fa
:10228c0091407800714898004f04780000000600d7
:10229c009fff070000000600889fbe008a9fbe00bb
:1022ac008005780001057800370807000044eb0032
:1022bc008844780002003700ef4f540013003200be
:1022cc007e405400e34f500010003600d0cdb300d8
:1022dc0000404400e54f50000c00360010cdb30018
:1022ec0000404400e34f50000800360040c3b300e8
:1022fc00804f540005003200084078000448070065
:10230c008980fb0000f578008944e8000844e80067
:10231c00e0c3b300804f5400e7ff36000980fb0098
:10232c00800de800040807000000eb004f05be001c
:10233c004f04be000000060062bb200040bf20001e
:10234c00010020008041eb0003597800610050002f
:10235c00e0805800fcff3a00000006000800fa007c
:10236c00881f780088ba20001800e800ea8057001f
:10237c0007000900b05878008100b1008000b1005e
:10238c000108070020c0b30098fc070010c0b30080
:10239c001a4a070018007800104a9000ea8157008a
:1023ac0010417800d1c2b30060bb20001e0a0700a8
:1023bc00a8882000004c7800df07070000a026004a
:1023cc0081012000f9400700605d8000184878000a
:1023dc009880fb004240a900140034001300200038
:1023ec00c8ba20004704200006fc2f0065bb200063
:1023fc00a48820004319dd00180141006701510039
:10240c000798b900000043000500400007000900d0
:10241c00305978008200b1008000b1008301e800df
:10242c009480fb00838f5000f2ff3d0000bb200026
:10243c000048eb004308dd000000e800705d8800f8
:10244c004f0478000080fa00000006001000fa002b
:10245c00881f78006a845700405d800007000900df
:10246c00305c78008800b1008000b100c60707001e
:10247c0020c0b3005dfc070010c0b300df490700ab
:10248c0000e8230001002000c8400700405d8000e8
:10249c008048900072815700080078008b0a070072
:1024ac00004478008040eb0001407800cf470700e3
:1024bc00a107070000a0260081012000bb400700f7
:1024cc0000bb20000848780080002000705d880068
:1024dc00605d8000f28057000700090031587800d9
:1024ec008000b1008100b1004f0478000080fa0038
:1024fc00000006000a00fa00889fbe00ed84570019
:10250c0088ba20001800780007000900b05c780039
:10251c008900b1008000b1009b07070020c0b30008
:10252c0032fc070010c0b300b449070000e82300d8
:10253c00010020009d400700180078001049900011
:10254c0080489000ee81570009007800c20a07000d
:10255c00004478008040eb0001407800a34707005e
:10256c007507070000a02600810120008f4007009e
:10257c0000bb20000848780010002000705d880027
:10258c00605d8000aff09700014878004f04be00fa
:10259c000080fa0000000600881f7800b888200030
:1025ac001804e00003003a003401070010c0b30027
:1025bc00004c78004f04780000000600435d80005a
:1025cc0003017800208920003248780030892000ef
:1025dc009240780061c860001280fb0062006000cd
:1025ec000080d10041892000804878001280fb00d7
:1025fc00640060004280de00518920008048780031
:10260c0060892000a341900003487800e2ff070096
:10261c0000bb20000048eb0000000600e4874700e8
:10262c00889fbe008a9fbe008c9fbe008e1f7800c4
:10263c0080047800010578000008eb00b10f200041
:10264c00b08820001004e000ff003200a2882000b7
:10265c001204e00028003a0080892000104d780018
:10266c00508920009080fb00c208dd0040892000ca
:10267c001040d000014070001045980012417800c5
:10268c00224598008041eb0033459800905d800016
:10269c004200dd000080e800c27a21006040790031
:1026ac0040459800905d80004200dd000200400033
:1026bc00a000900010009000480add004800de00e9
:1026cc0000007200c808de0050459800905d800044
:1026dc004200dd0002004000404090006045980040
:1026ec0070002000800c7800b0882000034878002f
:1026fc008000eb00d400370080892000104d78005a
:10270c00508920009080fb00c208dd004089200029
:10271c001040d0000140700010459800a1882000a6
:10272c00114078002045980030002000800c780083
:10273c001104e000c10032008000eb0081bf9f005b
:10274c006cbb2000190078000ff197000287fb008a
:10275c004204200002f1b900820578008d022000ad
:10276c0082864600ed417e0003707d000001e8008a
:10277c00820c7800610220008b80400074bb20002a
:10278c00e1407a0001717d000081e800820c780044
:10279c00915d8000c208dd008180e800c37a2100d1
:1027ac00e1c0790001717d0063024000840c780067
:1027bc00915d8000c208dd00838040001101900013
:1027cc00a1019000c818dd004811de0002817000e4
:1027dc00c819de0002727d0064014000820c780092
:1027ec00915d8000c208dd00c37a21008380400027
:1027fc00c140900001717d0065014000820c7800a1
:10280c00480220000b044400e8407e0081c0e80030
:10281c0001717d0066014000820c78008b80e8001d
:10282c00e1407e0001717d0067014000820c780060
:10283c00e3804500e1407e0001717d0068004000ae
:10284c00800c78000000450068417e000281fb008e
:10285c00e48045008c8040002dfb070068407e0022
:10286c000080fb0099004000810c7800408920001a
:10287c001004e0004100320074bb20006d427a006d
:10288c0084707d000100e800800c78000000450099
:10289c0071bb20006dc178000281fb00a1022000f9
:1028ac008b8040008c80400019fb070072bb20001d
:1028bc00ed4079008180fb0099804000810c78000c
:1028cc00a00320000b00400060407e0080707d0063
:1028dc000101e800820c7800b00320000b004000de
:1028ec0060407e0000717d000181e800820c780060
:1028fc00c00320000b00400060407e0000717d0092
:10290c0063814000820c7800d00320000b00400053
:10291c0060407e0000717d0064814000820c780074
:10292c00e00320000b00400060407e0000717d0041
:10293c0065814000820c7800f00320000b00400001
:10294c0060407e0000717d0066814000820c780042
:10295c00000420000b00400060407e0000717d00f0
:10296c0067814000820c7800100420000b004000ae
:10297c0060407e0000717d00e88c40005089200092
:10298c001004e000250032001902780040042000f9
:10299c0000f0b900620320000001410062417e009a
:1029ac0002727d008401e800830c78007203200021
:1029bc000001410062417e0082717d008481e8004b
:1029cc00830c7800820320000001410062417e00ec
:1029dc0082717d00e3014200830c78009203200099
:1029ec000001410062417e0082717d00e4014200e1
:1029fc00830c7800220420000001410062417e001b
:102a0c0082717d0065014200820c78003004b000b8
:102a1c0060407e0000717d00e60c4200a088200022
:102a2c009040e900014878008fb997008301e800d5
:102a3c0083bf9f000104e00042ff3a00b0882000f1
:102a4c000048eb008000eb00010078004f07780095
:102a5c004f06be004f05be004f04be004f00b10034
:102a6c0000000600615d8000e0ba2000ebfe07006c
:102a7c0001bb20008048780000000600889fbe0043
:102a8c00a08820000048eb0018050700804478005f
:102a9c000004e00044003a0010c0b300d3fa070071
:102aac00688920009840780090c2b3004f46070018
:102abc0080c0b300984f100002003a00a0cab300c7
:102acc00e3450700eafa0700008020001004e0004c
:102adc0033003a00408920001004e00004003a0062
:102aec008000eb00508920001004e000010032004f
:102afc00013f2200208920001004e00011003a0060
:102b0c000001eb00308920001004e00001003a00c5
:102b1c00120020000103780015002000020278004a
:102b2c00e3ad2000503e220010417800d1c2b3002a
:102b3c0060bb2000db420700a188200080487800a1
:102b4c00100037000001eb00308920001004e00079
:102b5c0001003a001200200001037800150020004b
:102b6c0002027800e3ad2000503e220010417800b4
:102b7c00d1c2b30060bb200047430700a1882000ee
:102b8c00804878006089200081c0b30090cf10008d
:102b9c0005003a00b0cab300ad450700020037008b
:102bac00008020000048eb00808920000948780054
:102bbc00cd050700a08820001080fb004f04be004c
:102bcc00000006000100070000000600889fbe0000
:102bdc008a1f7800485d8000184078000004e000ef
:102bec0004003a000000eb00504088008040780060
:102bfc0047003700e14f500005003a0080c0eb0061
:102c0c0050408000e30f50004100320004003700b8
:102c1c00e24f500002003a000000eb0050408800e8
:102c2c00595d800091cfb300e78f54003800360017
:102c3c00514080000100e800504088000185fb00f5
:102c4c00a202200002d1b900c78020000700410079
:102c5c009840900001487800a840900011409800de
:102c6c000280e800870140003840900080497800dd
:102c7c00484290000482fb00050020004602200020
:102c8c000203430007034300048bbe00584090002e
:102c9c004800dd00cf80de00001b72000193720043
:102cac008202b00007014100e84090000149780021
:102cbc0078409000104198000180fb0067004000b4
:102ccc0082002000110009000200d80000017800e9
:102cdc0069805400820f5000050031000300e800a9
:102cec0068815400e800440009fa07000600370028
:102cfc00a002200000d2b900f080200000004200a9
:102d0c00e800440002fa07008bfd07008040eb004e
:102d1c000000eb00705d880000bb200001487800cb
:102d2c004f0578004f04be00000006009605070012
:102d3c0010c0b3002dfa07004c000700000006007d
:102d4c00f0874700889fbe008a9fbe008c9fbe0004
:102d5c008e1f7800c0b79f00d1b79f00e2b79f00cd
:102d6c00e4ef9f00f5ef9f0086bf9f0007077800f8
:102d7c000404e00002003a00c4e79f003100370071
:102d8c00830678004fb59700dfb597008040eb00c5
:102d9c00c1e79f004fb0970000005500b0b79f00ef
:102dac000d0678008044eb008e0278000c0278004f
:102dbc000a01be00ffe897006fb09700974107002b
:102dcc00004478008944e8000004e000030032006d
:102ddc0000202e0041002000743e0700e7cf540075
:102dec00050032000804e00003003200f0f907008f
:102dfc000000e000ecff3a00008920001004e00025
:102e0c0002003200c8cbb300020037000804e00017
:102e1c00030032008fb89700884878000c00370008
:102e2c004fe097000040e800c0e79f0061054500b7
:102e3c00e0854d008d86e800efe8970080cf5000cc
:102e4c00d4ff3a004fe097000080fb00b0b79f0022
:102e5c003fb097004f0778004f06be004f05be00ed
:102e6c004f04be000f01b100000006000200fa0082
:102e7c00889fbe008a9fbe008c1f78008040eb00ac
:102e8c00c1f79f00605d800011409800405d80009c
:102e9c0030467800960f07000005be00a0ba20004f
:102eac0010007800690050008004d1000f04070066
:102ebc0000447800c0f79f000004e00026003a00b0
:102ecc0011fa0700a08820001004e00003003a006b
:102edc00f0cbb300c0f79f0020003700425d8000ac
:102eec00e50041001104e00009003a006240900046
:102efc000004e00006003a00724090000004e0007c
:102f0c0003003a00024890000004e0000500320083
:102f1c0050bd80007a400700c0f79f000004e0001d
:102f2c000d003a00c0ba20009003e80052bd8000aa
:102f3c006c8357008c4278000942780080ba2000dc
:102f4c0010007800e90140000a00be007cff070079
:102f5c0000447800010037000044eb00e204070055
:102f6c0020002000705d8800605d800008487800bb
:102f7c0000bb2000cff09700014878004f06780086
:102f8c004f05be004f04be000080fa000000060092
:102f9c000400fa000002eb00f4bf9f0083802000c5
:102fac00134178000280fb000000400081ba200031
:102fbc0011004000f04090008180fb000048900020
:102fcc004800dd0080807000304080008080680008
:102fdc005008800000806800304088000241e80002
:102fec0082497800e54f5100010036008449780091
:102ffc00c0ff9f004800de00d0ff9f0017c0b30049
:10300c000043eb00864278000f82e9008001eb0060
:10301c0002012000e480570000c9b30016480700e5
:10302c000080fa00000006000200fa00889fbe0033
:10303c008a9fbe008c9fbe00445d8000944290002d
:10304c000580fb0001002000244190004811dd00a8
:10305c0003002000000041008180490034419000b1
:10306c008281fb000200200000054100818549009f
:10307c0014407800e54f50007c00320005003e0003
:10308c00e24f50000a003200e44f50003f013a007a
:10309c0030003700e94f5000d5003200f04f50009f
:1030ac00f1003200e84f500038013a00a10037001f
:1030bc00a0ba200041002000908f100006003e00b6
:1030cc0090cfb30001bb2000804878002000200086
:1030dc00705d880037013700ab0407000a01be00a1
:1030ec0070c1b3007a450700405d800040409000fd
:1030fc000004e000020032000a00be0031030700a9
:10310c00ac4707008004780010c0b300bb46070032
:10311c0076470700000478000040eb00b746070034
:10312c0020002000705d8800605d8000094854001c
:10313c00c840de004848de0080c05000605d800062
:10314c001140980000bb20000048eb007a040700f7
:10315c0018013700a0ba200052002000900f110077
:10316c0006003e0090cfb30001bb200080487800e1
:10317c0010002000705d88000e0137004440900064
:10318c000004e000090032000040eb00c17a21008d
:10319c0080487800713e2200804878006a1f8900c0
:1031ac007b1f89004a1f89005b1f8900c27a21009e
:1031bc009240e80001497800703e22001048e80077
:1031cc000140780051c3b300814f50000800360015
:1031dc000149780010002000705d8800605d80005f
:1031ec000048eb0000bb200000c8eb00f1003700ea
:1031fc000080fb004200dd00a17a210001004000ac
:10320c000a88be00415d8000603e2200d1409000e3
:10321c0001487800601f8100711f8100800f5500ec
:10322c00818f5d00020036006a1f89007b1f8900b8
:10323c00401f8100511f8100800f5500818f5d0060
:10324c00020031004a1f89005b1f8900100020001a
:10325c00705d88008040eb00605d80000148780064
:10326c0000bb200001487800d2003700613e2200ec
:10327c00605d800011487800813e2200605d800016
:10328c009140780011409800401f8100511f81002f
:10329c004809dd004800de0000007100c808de00af
:1032ac00625d800020419800401f8100511f810009
:1032bc004008de00625d800030419800c13e220073
:1032cc00605d80009140780041409800601f810053
:1032dc00711f81004809dd004800de00000071000c
:1032ec00c808de00625d800050419800601f8100bc
:1032fc00711f81004008de00625d80006041980013
:10330c00c17a2100605d8000914078007140980086
:10331c00713e2200605d8000914078000148980069
:10332c0090002000705d880000bb20000048eb007e
:10333c00a0003700a0ba200071002000908f100070
:10334c0006003e0090cfb30001bb200080487800ff
:10335c0010002000705d8800960037008580fb000f
:10336c00911f8900425d8000224090004800dd00e2
:10337c0080807000911f8900b24090008180fb001a
:10338c00811f8900424090004800dd008080700061
:10339c00811f8900d24090008180fb001140880081
:1033ac00624090004800dd00808070001140880071
:1033bc00c088200072419000024878001000200064
:1033cc00705d8800605d80000048eb00811f81000b
:1033dc0010032000808f500002003e000000e80027
:1033ec00801f890000bb20000048eb0071003700f3
:1033fc0070002000705d8800911f8100605d80006e
:10340c0001487800901f81004800de00615d80005b
:10341c0090409800811f8100605d800021409800e1
:10342c00801f81004800de00615d8000b040980084
:10343c0011408000605d8000414098001040800089
:10344c004800de00615d8000d0409800c1882000fb
:10345c00605d8000914078006140980000bb2000c6
:10346c000048eb0053003700a0ba200012012000e6
:10347c00900f110006003e0090cfb30001bb20005e
:10348c00804878000000eb00705d88004900370030
:10349c00c44490008984fb00544090004800dd0037
:1034ac00808474000004eb0098bf9f00b6030700f3
:1034bc0070c0b300964307008046780080c0b3000c
:1034cc0093430700004678008840780070c0b30032
:1034dc00c64307008840780080c0b300c343070090
:1034ec000a01be0070c1b3007944070010c0b300dc
:1034fc003ef80700785d8800794488000089200038
:10350c000848780010c0b300bc45070000e8230051
:10351c0001002000a53c070077110700405d8000ea
:10352c0060409000e14f500002003a0098fe070006
:10353c000900370017c0b3000043eb008642780047
:10354c006e8257008001eb00030178008300780045
:10355c00e0c9b300c84607003821890014f80700f9
:10356c000000e000edff3a00a44507008d40780014
:10357c0070c0b3009d4307008c40780080c0b3003e
:10358c009a4307006c0307000a0037002000200054
:10359c00705d880080c0eb00605d800001487800a1
:1035ac00605d800011409800b1cfb30000bb2000db
:1035bc00014878004f06be004f05be004f04be0008
:1035cc000080fa00000006006f03070010c0b30073
:1035dc0006f807000100070000000600e887470016
:1035ec00889fbe008a9fbe008c9fbe008e1f7800f5
:1035fc00405d8000b040780081f79f00bc0d070053
:10360c000005be00725d800002467800605d80009f
:10361c008000eb00d9f70700340207000044780063
:10362c000004e0005b003a0037f80700f8cbb30069
:10363c0019c0b300a08820001004e000560032002e
:10364c00425d8000e50041001104e0000b003a00ef
:10365c00624090000004e00008003a0072409000c4
:10366c000004e00005003a00024890000004e0006d
:10367c0002003a00004478000800370050bd80007a
:10368c009f3e0700004478000004e0000300320075
:10369c00e8cbb30019c0b3003f0037000c80fb002f
:1036ac000008a3002a0032006c5d80000007d100e6
:1036bc008044eb000804e00020003a004100370091
:1036cc0061004500e0804d00e0b79f00f1b79f001e
:1036dc0050bd80008c02780014c0b3000a01be00fb
:1036ec008ff09700a23f070000447800e0cdb300b4
:1036fc00804f540002003a008944e8000300370070
:10370c000804e00001003a0089c4e8000c86e800d7
:10371c008d46e9000804e00008003a000d04e000c2
:10372c00050032006fb59700ffb59700a0f70700b2
:10373c000000e000e2ff3a000044eb0000892000aa
:10374c001004e00014003200c8cbb30012003700a4
:10375c000c82fb000402d1000446780050bd8000ae
:10376c00655d80000a01be008ff09700803f070066
:10377c0000447800e0cdb300804f540005003200c7
:10378c008044eb000804e00003003a008c4446003f
:10379c000100370019c0b300d30207000980fb00f9
:1037ac00705d880000bb2000084878004f07780047
:1037bc004f06be004f05be004f04be008f00b10087
:1037cc00000006000e04e00003003a000e447800ee
:1037dc008e447800d9ff37008e4678008044eb0089
:1037ec00d2ff3700e802070010c0b3007ff70700d4
:1037fc000100070000000600889fbe00495d8000a4
:10380c00ba010700004478000004e0001e003a00f2
:10381c00bdf70700f8cbb300a08820001004e0002f
:10382c0019003200425d8000e30041001104e00009
:10383c0009003a00424090000004e00006003a0003
:10384c00524090000004e00003003a0062409000f7
:10385c000004e0000500320050bd8000283e070047
:10386c00004478000004e00007003a0050bd8000de
:10387c00625d800089007800643e07000044780097
:10388c000004e0000300320000202e004100200064
:10389c00c63b07009402070000bb200008487800d4
:1038ac0010002000705d88004f04be000000060070
:1038bc00889fbe008a9fbe00495d8000c94590006c
:1038cc0059459000b002070010c0b30047f707003d
:1038dc0086010700004478000004e0000e003a0066
:1038ec0089f70700f8cbb300a08820001004e00093
:1038fc000900320050bd8000645d80008a41780070
:10390c000b417800890078006e3e07000044780077
:10391c000004e0000300320000202e0041002000d3
:10392c00a23b07007002070010002000705d8800a9
:10393c0000bb2000084878004f05be004f04be00b5
:10394c0000000600435d80001304e0001900320003
:10395c009340900010892000014878000104e00099
:10396c001400320020892000a34090000148780008
:10397c0063814100308920009240780061c860006a
:10398c001280fb00620060000080d10041892000a1
:10399c00804878001280fb00640060004280de00ea
:1039ac00518920008048780060892000c341900034
:1039bc00034878000000eb00705d880001bb20001c
:1039cc0080487800108920001004e00001003a00c3
:1039dc0059020700000006006b02070010c0b3007c
:1039ec0002f707000100070000000600ca00fa00f9
:1039fc00889fbe008a9fbe008c9fbe00605d8000c9
:103a0c00725d80008000eb00dcf6070037010700d8
:103a1c0000447800190020000004e00054003a0033
:103a2c0039f70700f8cbb30019002000a08820005c
:103a3c001004e0004e003200415d80001104e000f3
:103a4c0009003a00114090000004e00006003a0022
:103a5c00214090000004e00003003a003140900047
:103a6c000004e0000600320050bd8000a43d0700b9
:103a7c00e8cbb300190020000004e0003c003a0041
:103a8c00435d8000d34090008180fb004340900058
:103a9c000080fb004400dd004409de0002057000dc
:103aac00ef806000c808dd00634090000080fb00e0
:103abc0000807000d0179f00f3469000034e9000da
:103acc00690055004301de004310dd000a00500080
:103adc00f00440008205e9000900e00002003a0011
:103aec008205780089002000e9804100c0f22f0097
:103afc000084470083c0b30008007800520c070014
:103b0c0051bd80005102b0000b0044008941780087
:103b1c0022c0b3004c0c070017c0b3000043eb00ed
:103b2c008c427800a4f22f000f024200c0ba200091
:103b3c009081e8000a017800880078000d40780038
:103b4c004d45070000447800605d8000af6896002a
:103b5c0011409800df109700678040004300de00a2
:103b6c008084e80000202e00410020000f3b07005d
:103b7c00dd010700605d800008487800795d8800f1
:103b8c0000bb2000084878004f06be004f05be0061
:103b9c004f04be000080fa0000000600fa01070086
:103bac0010c0b30091f607000100070000000600ea
:103bbc00e6874700889fbe008a9fbe008c9fbe0090
:103bcc008e1f7800e3ba2000130478004244de0014
:103bdc006b5d8000425d8000124078000082fb002b
:103bec0005002000124090004800dd00010020007c
:103bfc000402400085824800224090008080fb0037
:103c0c000000200004064000858648008009eb0077
:103c1c0010c0b300f94307000c01be0070c1b30023
:103c2c00ab42070092f607008846e900e1cf460058
:103c3c00220032000b05e8008b84e8006384450009
:103c4c000d467800eeba20000080eb0000e9b900c8
:103c5c00f2b79f0083bf9f008801780009017800ac
:103c6c008a0078000b0078009d3b07000004e00000
:103c7c00060032008041eb00834d7800034d780044
:103c8c0000c8b300804c7800004c7800e4854500f7
:103c9c009e007800648f40000c46e90064054500e6
:103cac00e4844400640444006fe9970002c04600b9
:103cbc000040e900804f5600e7ff3a000040eb005f
:103ccc00ce4307004f0778004f06be004f05be00dd
:103cdc004f04be006f00b100000006000041eb0075
:103cec0040802000024878001089200002487800ab
:103cfc003089200002487800408920000248780072
:103d0c00508920000248780014c0b300208920009c
:103d1c000448780061c0b300608920000148780035
:103d2c0081cdb300c0882000014878007089200044
:103d3c0004487800b088200002487800a088200051
:103d4c0002487800403f220090417800e2cf5100b9
:103d5c0001003a0004417800c710dd00d4c2bf0056
:103d6c000074a10001407000d4e2b700e140610092
:103d7c0081c04000c5c2bf000014a100014070000a
:103d8c00c5e2b700034078000014a2000080fb00dd
:103d9c000000ea004f00de004600dd00412d20004f
:103dac00914078000164a10080c07000010078008f
:103dbc00d4e2b7000040eb00904307005e0107001f
:103dcc0000000600889fbe008a9fbe000002be0055
:103ddc00a0892000104078000004e0004000320070
:103dec0008712200090020008040eb00814378001c
:103dfc00c68920001601be00840f5100858f590022
:103e0c00030036000401510085815900020037007f
:103e1c000201520083815a00820f5400838f5c0090
:103e2c00020036000204be00814378008140e800a5
:103e3c0064034300814f5000eeff3a00b08920002c
:103e4c00074878000785fb004b3f22009b40780019
:103e5c00200d20000a004000a98920000900400024
:103e6c0010c060001e0032000180fb000000e90061
:103e7c00480320000880b90000004500621d2000a6
:103e8c0000014100e4162000000242006010b00066
:103e9c00e2c17c0064c17c00e0c07c00a041220037
:103eac00430907001b80fb000000e9000880b900f3
:103ebc00000045006310200080814100623f220019
:103ecc0063c97c00e316200080814100723f220010
:103edc0063c97c00601db000823f220060c97c0079
:103eec004f05be004f04be00000006001000fa0093
:103efc00889fbe008a9fbe008c1f7800fe0e0700b4
:103f0c00210107000040eb003c430700020f0700b3
:103f1c000002780010408000800f52001300310026
:103f2c0001002000020020000300200005002000fa
:103f3c000600200007002000040050008580580077
:103f4c00060159008781590004402200450f2000ca
:103f5c006033b80077f40700843e20000500200091
:103f6c006033b800fef30700103a0700ec0e0700b0
:103f7c00c07a2100904078000104e00007003a006c
:103f8c00c1fb2f00108920001004e000d0003a0083
:103f9c00e9000700c1fb2f00cd003700905d8000c9
:103fac000000e800905d88008180fb00810f5000cc
:103fbc00020039000000eb00905d8800905d8000ed
:103fcc004200dd00c87a210008004000100190007a
:103fdc00a001900070c1b300bd410700801f81009b
:103fec0070448800c40e07000c8920008045eb004b
:103ffc000b4e7800905d80004200dd000800400010
:10400c00a0009000100090006eff070000e8230055
:10401c0001002000e539070010c0b300f74207008b
:10402c0040c0b300ba40070080447800a0c0b30081
:10403c00b7400700004578008b40780040c0b300c3
:10404c00ea4007008b407800a0c0b300e7400700af
:10405c007d070700000478008940780040c0b30059
:10406c00e24007008a407800a0c0b300df400700a0
:10407c0000792100800f54000e003600c502a90003
:10408c0010c0b300004e78000b407800db420700f4
:10409c00108920001004e00001003a00a60007007f
:1040ac0000a0260081012000c0390700f1fc2f0080
:1040bc0087003700c502a800a08920001004e0008a
:1040cc0082003200905d800000004000600db00066
:1040dc00c97a2100e0807c008100e80001b07c00fe
:1040ec00401f2000808f50007800360056070700d4
:1040fc0000047800905d800000004000600db0006e
:10410c008000eb0001b07c006140b90065f2070053
:10411c00f0b79f0081bf9f0092bf9f00a3bf9f007d
:10412c000800e00008003d006022b80006002000f6
:10413c00070f24008ff10700f0b79f0081bf9f008d
:10414c0092bf9f00a3bf9f00403f22001081fb0045
:10415c00400320000091b900b08920001080fb00c2
:10416c000200400000004000601db000a18920004a
:10417c00608478006140b9004af20700b0b79f0034
:10418c00c1b79f00d2b79f00e3b79f000800e000c3
:10419c0008003d006022b80006002000070f240034
:1041ac0074f10700b0b79f00c1b79f00d2b79f0052
:1041bc00e3b79f00d4cc2c00c5cc2c00c6cc2c0073
:1041cc0047ff23003fb09700cfb097005fb1970037
:1041dc00efb1970036f207000002be000203be00ea
:1041ec007fb097008fb897001fb99700afb99700b1
:1041fc00e2f107000000e00012003c0064662600bb
:10420c00656626006666260067fe23003fb09700b1
:10421c00cfb097005fb19700efb1970024f2070081
:10422c000002be000203be007fb097008fb897005b
:10423c001fb99700afb99700cbf107000000e00061
:10424c0022003d0042062000613f2200a0412200d6
:10425c008f070700403f22001080fb000000e900a0
:10426c00b28920001281fb00430320000380b900b7
:10427c00000141006110200082804000a3892000d1
:10428c00603f22001040780080f07900e116200099
:10429c0082804000703f22001040780080f079004e
:1042ac00611d200082804000803f22001040780079
:1042bc0080f0790002014100e223b000d01f8100a0
:1042cc0000b179008000eb00010037008000eb00aa
:1042dc00010078004f0678004f05be004f04be0069
:1042ec000080fa00000006000d0e07007089200007
:1042fc0021c0b30090cf1000020032000040eb0050
:10430c003e420700108920001004e00001003a0032
:10431c0009000700000006008000eb001089200057
:10432c001004e000020032009bf80700110020008e
:10433c000100780000000600708920001040780011
:10434c00e14f50000800320005003900e24f5000e8
:10435c0007003200e34f500009003a000600370016
:10436c004841070007003700d84107000500370017
:10437c00e141070003003700ea4107000100370064
:10438c0040410700000006007089200010407800b2
:10439c00e14f50000800320005003900e24f500098
:1043ac0007003200e34f500009003a0006003700c6
:1043bc007541070007003700ce41070005003700a4
:1043cc00d741070003003700e04107000100370028
:1043dc006d41070000000600889fbe008a1f780010
:1043ec008042780003047800108920000048eb001c
:1043fc00ffcf520016003e00425d8800515d8800e0
:10440c00645d8800eaba2000130d780009bb200017
:10441c00b0cfb300804c78000540780062c0b30088
:10442c000440bc000280e800e317220060807900a1
:10443c00808f5000060039006400410060807900d4
:10444c00000001001a0c78001980fb0001003700f5
:10445c00b00f20004f0578004f04be00000006008e
:10446c00889fbe008a9fbe008c9fbe008e1f780066
:10447c000002780001057800820478008306780039
:10448c008001eb0083087800b58820001504e0005b
:10449c00c6003200ea8f5600c400360050c0b3008c
:1044ac00004a78001089200010497800a08820006c
:1044bc001004e00020003a001341980023419800ba
:1044cc00808920001040780030419800905d800079
:1044dc004200dd000080e800c27a210060407900d3
:1044ec00c0449800905d80004200dd000200400056
:1044fc00a000900010009000480add004800de008b
:10450c0000007200c808de00d0449800905d800066
:10451c004200dd000200400040409000e044980062
:10452c0070002000000d7800834a780090802000f5
:10453c00034878009d003700300020008008780088
:10454c000287e800004feb0090802000904178003b
:10455c00a088200010427800834f520087003e0054
:10456c00800037008382fb004004200000a8b900c3
:10457c004002b00062bb2000604079000080fb006c
:10458c001a0040006b004000808f560087003900f5
:10459c00034052000040e900904498001e4fe80090
:1045ac004204200002a8b900000378004502200054
:1045bc00808242006bbb200065c07d000080fb0048
:1045cc001a004000680d40008002200006004000e8
:1045dc0060c07d0000f67c000c804400610220006d
:1045ec008680400078bb2000e1407c0011409800a0
:1045fc00915d8000c208dd008180e800c47a210052
:10460c00e1407a0021409800915d8000c208dd00f5
:10461c008480400011019000a1019000c818dd00b9
:10462c004811de0002817000c819de00324098008b
:10463c00915d8000c208dd0084804000c140900084
:10464c0041409800e5c07d0081c0e80051409800d1
:10465c008680e800e1c07d0061409800e3004300e3
:10466c00e1c07d00714098006800400065c17d008c
:10467c000281fb00e40043008b804000a4f30700a0
:10468c00408920001004e0002500320092802000b8
:10469c001280fb00440420000480b90080017800e3
:1046ac00410220008080400061c07d000080fb0042
:1046bc000000460009004000820220000301410076
:1046cc0062427c000448980061c07d000080fb00c1
:1046dc0000004600008044006900400062417c00fc
:1046ec000281fb00a1022000838040008b804000ef
:1046fc0087f30700918020001180fb00420420000a
:10470c000280b9008002b00060407c000080fb0099
:10471c00800046000106e8001a004000000de80089
:10472c0094802000944178000380fb004204200018
:10473c000280b9004002b00062bb200060407900ea
:10474c000080fb0000004600680640008341e80042
:10475c00034a7800a08820001042780084cf5100d2
:10476c0080ff39000040eb00b188200080487800c1
:10477c0091802000804878000c0037008382fb0079
:10478c004004200000a8b9004002b00062bb200029
:10479c00604079000080fb001a0040006b00400074
:1047ac003c002000808f560079ff31000000eb00a8
:1047bc004f0778004f06be004f05be004f04be00e9
:1047cc000000060091cfb30000bb20000148780028
:1047dc0000000600889fbe008a9fbe008c1f7800d8
:1047ec0000047800010678000040eb00106c980083
:1047fc00a9022000888444008902780044c0b300d8
:10480c006011b80021c0b30008007800583b0700c5
:10481c0080407800004e78000004e00028003a0048
:10482c0080c0b300106c9800e88444004a0020005b
:10483c000b0020008902780014c0b3000a01be00ee
:10484c0021c0b30008007800493b0700004e7800f7
:10485c000004e00009003a0061054500e0854d00c8
:10486c001868900000c0e800106c98008984e8007b
:10487c00e60f5500e08f5d00eeff3a009c4078009b
:10488c000104e0003c003200e0cdb30080cf5000ca
:10489c0006003a000a0045008b804d00a002b000d3
:1048ac0060407c00e34f50003300320010c0b30076
:1048bc00106c9800d0cfb300206c98002e003700fd
:1048cc00e0cdb30080cf500027003a00286890005c
:1048dc00e34f500024003a006055b800890278007c
:1048ec0014c0b3000a01be0021c0b3000800780058
:1048fc001f3b0700004e78000004e00009003a005e
:10490c0061054500e0854d001868900000c0e80086
:10491c00106c98008984e800e60f5500e08f5d006c
:10492c00eeff3a009c4078000104e00012003200d7
:10493c00e0cdb30080cf500006003a000a004500dd
:10494c008b804d00a002b00060407c00e34f500013
:10495c000900320010c0b300106c9800e0cfb30017
:10496c00206c98000400370010c0b300106c980045
:10497c0000c0eb00206c98000040eb00207c9800fd
:10498c00307c9800407c9800507c9800607c9800ab
:10499c00707c980000c4980010c4980020c4980043
:1049ac0030c498006074980070749800007c980073
:1049bc00107c980028689000fe4f400076003a006a
:1049cc00b868900020c8b30080cf500072003a0045
:1049dc00d86890000003200081006000808f500098
:1049ec0049003a00408920001004e0001500320014
:1049fc00a9032000888444008902780044c0b300d5
:104a0c00820020000300200031c0b30008007800b1
:104a1c00d73a0700104698000004e0000900320065
:104a2c0000c0eb00804c7800307c9800407c9800f3
:104a3c00507c9800607c9800707c980000c49800b2
:104a4c0010c49800508920001004e000520032007d
:104a5c0029042000888444008902780014c0b30023
:104a6c00e2002000030020008040eb0008007800ea
:104a7c00bf3a0700204698000004e0000300320013
:104a8c0000c0eb00804c780030c498006903200013
:104a9c00888444008902780014c0b300c20020004e
:104aac00030020008040eb0008007800b03a0700bb
:104abc00304698000004e0000300320000c0eb0018
:104acc00804c78007074980089032000888444001e
:104adc008902780014c0b300d2002000030020002b
:104aec008040eb0008007800a13a0700404698008f
:104afc000004e0002800320000c0eb00804c78007d
:104b0c00107c98002400370000022000808f500099
:104b1c0021003a00508920001004e0001e003200f1
:104b2c0069032000888444008902780014c0b30013
:104b3c00b2002000030020008040eb000800780049
:104b4c008b3a0700304698000004e0000300320066
:104b5c0000c0eb00804c7800707498008903200032
:104b6c00888444008902780014c0b300d20020006d
:104b7c00030020008040eb00080078007c3a07001e
:104b8c00404698000004e0000300320000c0eb0037
:104b9c00804c7800107c98004f0678004f05be00c2
:084bac004f04be0000000600ea
:020000040000fa
:020000040001f9
:102804000600fa00889fbe00820478000344780022
:10281400e58157006a815700edd007003ff9970022
:1028240088417800ea8057000900780008d1070041
:102834003ff897000080fb004f04be000080fa00c0
:10284400000006000200fa00889fbe000004be00db
:102854006681570021c0b300a0c2b30097060700e9
:102864002ff89700004c78003ff89700804c7800d0
:102874004f04be000080fa00000006000400fa00c5
:10288400889fbe008a9fbe00000578000068900003
:102894008085fb0010002000a0bf9f00e3044500da
:1028a4008000eb003121890028382200c202200078
:1028b4000800780033bb07009a40d000eec06000e7
:1028c4001a4090004200de006100600080c0700089
:1028d40000cab30000cc7000323822009a40900045
:1028e400c608dd002a4090004400dd000043b20029
:1028f40000c970002a109000ba10900043c0b300c1
:10290400bfff07008083fb000701e8008a6890008e
:102914008180fb00c408de0001717c000781e800af
:102924008a689000c408dd0001717c0080c1e80061
:102934000b437800e7cf55001100360008027800f9
:1029440005cfb3000381fb001980fb004400de00c7
:10295400e2407a000140700000717a008341e8008f
:102964008380fb003980fb004400dd0005406000eb
:1029740080707a0068435300e74f5300f1ff3e0034
:102984000604e00009003a008381fb00223822009b
:102994001a6890004300dd0068406000e34079005d
:1029a4000140700080717900210037000683fb002c
:1029b40068001300f20f20000011dd000382fb0009
:1029c400233822000281fb00c410de001980fb00c2
:1029d4004400de0080c0600064c0790080c07000e4
:1029e40001f279008402e8004411dd001980fb0043
:1029f4004400dd000041610082f279009a68900091
:102a0400e1806000670313008608dd008180fb001d
:102a14004409de0064c079000240700000f27900cd
:102a2400c408dd0065c079000140700080f27900bf
:102a34004339dd00028145007501410017c0b30030
:102a44000043eb00874278006c825700ea8157000c
:102a54002138220000c9b300890907004f05be00d0
:102a64004f04be000080fa0000000600523b220022
:102a74009281fb00c519dd000342b200023b220033
:102a84001281fb004311dd007841610082c17100b5
:102a9400123b22001281fb004211dd0064416100ff
:102aa40082c17100223b220012417800634161001f
:102ab40002c87100323b22009281fb00c619dd007e
:102ac400423b22001281fb004511dd000242b200ac
:102ad40082c1710081c04000fec0600081c17100ec
:102ae40013409800000006000400fa00889fbe000e
:102af4008a9fbe008c9fbe00800578000105780087
:102b04000206be0000c1b30003060700804478003b
:102b14008040eb0020382200d4ff0700020120008f
:102b240082bf9f0017c0b3000043eb00603b22004c
:102b340090427800708257008001eb002138220017
:102b440080c9b3004e090700480620000004e000d5
:102b5400060032000000fb002500370090c3b300dc
:102b6400ed0507000068a30003003a000804e9002b
:102b7400e10f4400f9ff3a008a0078000b00780066
:102b840030ff070000cfb30000c464008840780021
:102b9400b140b30000c1b30016060700c608070021
:102ba400004e780088407800c140b30000c1b300f3
:102bb40010060700c0080700804e7800f081570017
:102bc40000012000801978008043eb00074378005f
:102bd400603b220090427800708257000001eb00b5
:102be4008000eb0007407800250907000000fb0087
:102bf4004f06be004f05be004f04be000080fa0021
:102c0400000006000200fa00889fbe008a9fbe00f2
:102c14008c1f780000057800014478008305780053
:102c24000446780009012000a9bf9f000104e000c8
:102c34001200320080c9b30080cf50001b003a005c
:102c4400824078002038220088ff070017c0b300b4
:102c5400d6c9b300603b2200904278006c825700d2
:102c64008a017800090178002138220008407800a0
:102c740003090700804078001700370017c0b3002d
:102c8400d6c9b300603b2200904278006c825700a2
:102c94008a0178000001eb008000eb000040eb00ab
:102ca400f7080700804078000b00370017c0b30016
:102cb400d6c9b300603b2200904278006c82570072
:102cc4008a0178000001eb008000eb0008407800e6
:102cd400eb080700804078000001eb00f0cdb30062
:102ce40080cf5000580032000104e000530035004a
:102cf40000162000a0bf9f00f0c9b3000b00e00045
:102d0400010032000c4078008043eb00004378005f
:102d1400603b2200904278006c82570023382200e6
:102d24000001eb008300780007407800d408070016
:102d34002138220091407800214598003138220042
:102d440091407800314598000004e0003b003500d4
:102d54002fb89700ef0f500038003600670040008e
:102d64004300de0000c0e9004065980001c2b300e2
:102d7400814f500001003600416598006400450011
:102d84004a6190000281fb0041382200e2b9070049
:102d94000b00e0000d003200710220008a80400028
:102da400800220000a004000a6fe0700aa4090000e
:102db400810fb200c288de004a6090000080fb00f0
:102dc400808f50001f0032001c00370000022000da
:102dd400a0bf9f008043eb000c437800603b2200bf
:102de400904278006c825700530220008a8141008f
:102df4000001eb008000eb0007407800a00807000a
:102e040000447800710220008a8040008002200083
:102e14000a0040008bfe07000804e00007003500ac
:102e2400aa409000810fb200c288de004a60900080
:102e34000080fb00808f5000020032000081eb0014
:102e44000100370012002000020078004f067800cd
:102e54004f05be004f04be000080fa0000000600cb
:102e64000200fa00889fbe008a9fbe000005780019
:102e7400014478008304780084457800001620001b
:102e8400b0bf9f000104e0001600320080c9b30007
:102e940080cf500023003a0082407800203822007e
:102ea400f2fe07000040eb000900e00001003200e0
:102eb4000b4078008043eb0000437800603b220025
:102ec400904278006a8257002338220002012000d1
:102ed4008300780080c9b300690807008040780047
:102ee4001f0037000040eb000300e0000100320047
:102ef400044078008043eb0000437800603b2200ec
:102f0400904278006a825700233822000001eb00c7
:102f14008000eb00074078005908070080407800e3
:102f24000f0037000040eb000300e0000100320016
:102f3400044078008043eb0000437800603b2200ab
:102f4400904278006a825700233822000001eb0087
:102f54008000eb00084078004908070080407800b2
:102f64000001eb00f0cdb30080cf500046003200ea
:102f74002038220010407800204598003038220084
:102f840010407800304598000104e0003b00350013
:102f94003fb89700ef0f500038003600670040003c
:102fa4004300de0000c0e9004065980001c2b300a0
:102fb400814f5000010036004165980064004500cf
:102fc4004a6190000281fb004138220052b9070097
:102fd4000900e0000d003200710220008a804000e8
:102fe400800220000a00400016fe0700aa4090005c
:102ff400810fb200c288de004a6090000080fb00ae
:10300400808f50001f0032001c0037000002200097
:10301400b0bf9f008043eb000b437800603b22006d
:10302400904278006a825700530220008a8141004e
:103034000001eb008000eb00074078001008070057
:1030440000447800710220008a8040008002200041
:103054000a004000fbfd07000804e00007003500fb
:10306400aa409000810fb200c288de004a6090003e
:103074000080fb00808f5000020032000081eb00d2
:103084000100370012002000020078004f05be0046
:103094004f04be000080fa00000006000200fa009f
:1030a4008101780001022000f1bf9f002138220035
:1030b40012ccb300824878003238220010497800dc
:1030c40042382200104090000049780017c0b30035
