:020000040000fa
:080000000002040000000000f2
:020000040000fa
:100400002fe021000e7f22000e0188000000000076
:100410000c000700406924000100200011000700c3
:10042000000020000000e000020032000000020096
:10043000000000007a3d0200000000000040da00e9
:100440000000fe004440a900e02c20000000e00075
:100450000300320000002000a00188004440a800f2
:100460000000060091018800800078000000eb0089
:1004700015003700e280400032a0b4009101ba00bc
:10048000e280400032a0b4009102ba00e280400055
:1004900032a0b4000002eb00472bde00f507b200eb
:1004a000602ce10004003a000059eb008301e900f0
:1004b000fdff3e00040037006128e100010032002a
:1004c0000082eb00040007001101ba000200e00006
:1004d000e8ff3a00000006003159ba008301e90044
:1004e0000c0032002159ba008301e90008003200f3
:1004f0000400e00003003a00e280400032a0b400b3
:10050000f5ff370011d9ba008301e900faff3a007c
:100510008100e800e180400032a0b4000000060045
:1005200000000000000000000000000000000000cb
:1005300000000000000000000000000000000000bb
:1005400000000000000000000000000000000000ab
:10055000000000000000000000000000000000009b
:10056000000000000000000000000000000000008b
:10057000000000000000000000000000000000007b
:10058000000000000000000000000000000000006b
:10059000000000000000000000000000000000005b
:1005a000000000000000000000000000000000004b
:1005b000000000000000000000000000000000003b
:1005c000000000000000000000000000000000002b
:1005d000000000000000000000000000000000001b
:1005e000000000000000000000000000000000000b
:1005f00000000000000000000000000000000000fb
:100600000040da000000fe0022c2bf00610060006e
:100610000000060020c2bf0066406000e64f5000a8
:1006200002003a0030118000000006003011800006
:10063000f00fb200000006000002780042c0bf00c8
:100640000080fb00c502de0091028000ff3ffc003d
:1006500000ceb3004260b700910288000000200085
:1006600090018800c0bf2a009001ba000308b200c0
:1006700005003a0043c7bf004400de006700600089
:10068000800f520004003a0092028000ff3ffc00fd
:10069000c528dd001f003700103a8000a2092000a5
:1006a0008107200036742000014b7800024b78004f
:1006b000044b78000004a0000080fb0072052000bd
:1006c0006104200024742000014a7800024a780066
:1006d000004a780083007800820c20000100370077
:1006e0008100e80042c7bf000008a30002003200fa
:1006f000828f5000faff3a00e7c0620042c7bf0095
:100700000008a3000900320092028000ff3ffc00b5
:10071000c508dd0042c0bf007f406000014070009e
:1007200042e0b700920288000000050092028000bb
:10073000ff3ffc00c508dd0042c0bf007f406000f5
:100740000140700042e0b7009202880010000500ee
:100750006022b800060220000000d0008180d20094
:100760000482d2008582d2000000a0000202520062
:1007700083825a00030031000202420083824a0051
:100780000000a1000603e900f3ff3a0000000600a4
:10079000881f7800000478005001be004000be00b1
:1007a0000400400085804800060149008781490017
:1007b000009cbe000294be000400e1000588e10038
:1007c0000690e1000798e100020031006800440053
:1007d0001008e8004f04780000000600f487470086
:1007e000889fbe008a9fbe008c9fbe008e1f78002f
:1007f0000205be000004be00d4b79f00e5b79f000d
:10080000f6b79f0087bf9f000000eb00c0b79f00b6
:10081000b0b79f00a0b79f0090b79f0080b79f0020
:100820000d042000bfb097004fb0970000014000ba
:100830000000e0000f003d004f08de0000007100e6
:10084000c0b79f004d00070001003d0012002000ce
:100850005000070001003d00120020005500070075
:1008600061000700660007000f004000c8ff070096
:10087000220037004f08de0000067100ccb79f0051
:100880003e00070001003d0012002000410007006b
:1008900001003d0012002000460007005200070042
:1008a0000fb297009fb297002fb39700bfb3970086
:1008b000590007000000520081805a0002015b00cd
:1008c00083815b0080b79f0091b79f00a2b79f0014
:1008d000b3b79f000007eb004f0007000020e100c6
:1008e00001a8e10002b0e10003b8e100010031001d
:1008f0001e0020000e005600c0b79f004fb29700a8
:100900000400e00007003500100020000100200076
:100910006011b80008047000898470000a05710035
:100920008b8571008d06e900beff3a000400e000ef
:1009300003003d00320007000f00400094ff070055
:100940004fa897000000e00004003a000fb49700a1
:100950009fb497002fb59700bfb597000800be0061
:100960000a01be004f0778004f06be004f05be00cb
:100970004f04be004f01b10000000600018040009e
:1009800090b79f000001eb008fb097000100e000de
:10099000000006000200700090b79f000180400038
:1009a00080b79f000001eb00ffa897000100e00066
:1009b000000006000200700080b79f000180400028
:1009c0006faa9700cf20de0001007000f0af9f00fb
:1009d000040242000800be000a01be004f18de00fb
:1009e0000002720000000600e4af9f00080444000b
:1009f00089844c000a054d008b854d0000000600df
:100a00003fb29700cfb297005fb39700efb3970064
:100a100000fe2f00000006003fb09700cfb0970007
:100a20005fb19700efb1970000000600881f7800c3
:100a300018002000881f780068ff07008f87e900f2
:100a40004f04780000000600801feb0063ff0700e2
:100a50008f87e90000000600889fbe008a9fbe00c5
:100a60008c1f78000205be000004be00e00f50009d
:100a7000e08f5800e00f5900e08f59000c003d0056
:100a80006000b8006011b800080450008984580064
:100a90000a0559008b8559001c0020001f00070023
:100aa00008003d00180007000006eb0005003700b5
:100ab0000006eb001900070002003d000f000700d0
:100ac0001c0020000800be000a01be00d7ff07007e
:100ad0000203be000002be000c00e0000100320074
:100ae000060007000400be000601be004f067800a5
:100af0004f05be004f04be00000006006000b800b5
:100b00006011b800000037000402500085825800d0
:100b1000060359008783590000000600e00f5200c9
:100b2000e08f5a00e00f5b00e08f5b0000000600e2
:100b3000889fbe008a9fbe008c1f78000205be0001
:100b40000004be00e00f5000e08f5800e00f590095
:100b5000e08f59000a003d006000b8006011b80045
:100b600008045000898458000a0559008b855900f3
:100b70001c0020001800070007003d00050037009a
:100b80000006eb001400070003003d006000b80001
:100b90006011b800150007000800be000a01be0081
:100ba000a9ff07000203be000002be000c00e00027
:100bb000030032006000b8006011b8000b000700ad
:100bc0000400be000601be004f0678004f05be00bf
:100bd0004f04be0000000600e00f5200e08f5a00f4
:100be000e00f5b00e08f5b00000006000402500095
:100bf00085825800060359008783590000000600cb
:100c0000889fbe008a9fbe008c1f78000205be0030
:100c10000004be000006eb00e00f5000e08f58001b
:100c2000e00f5900e08f590007003d006000b80058
:100c30006011b80008045000898458000a05590062
:100c40008b8559001c002000e00f5200e08f5a00f5
:100c5000e00f5b00e08f5b0002003d000f0007002b
:100c60000c00a2000800be000a01be00120007002e
:100c70000203be000002be000c00e00001003200d2
:100c8000060007000400be000601be004f06780003
:100c90004f05be004f04be00000006006000b80013
:100ca0006011b80004025000858258000603590004
:100cb0008783590000000600889fbe008a9fbe00ff
:100cc0008c9fbe000404b8000506b80089044600e5
:100cd00060854e000606b8000a054600e0854e0015
:100ce0000706b8008b054600040eb80089044600cc
:100cf0000a854e00e0854d00050eb8000a05460045
:100d00008b854e00060eb8008b0546000416b80011
:100d10000a0546008b854e000516b8008b05460077
:100d2000041eb8008b0546000800be000a01be0084
:100d30004f06be004f05be004f04be000000060077
:100d40008001eb000200370061f079008301e800c8
:100d5000828f5100fcff3a0000000600000278007c
:100d6000808f50000a00310082814000808f510046
:100d700007003600020240008000eb00436278006a
:100d80008100e800828f500007003200fbff37002f
:100d90000200e0000400320002814000315a780075
:100da000828f5000fdff3a00000006008001eb003a
:100db00002003700817178008301e800828f5100c2
:100dc000fcff3a0000000600800078003004e000dc
:100dd000feff3a00010050000000e900000006009c
:020000040000fa
:020000040001f9
:0457f00033ff000083
:020000040000fa
:020000040001f9
:0457f400c0fc0000f5
:020000040000fa
:020000040001f9
:0457f8008f09000015
:020000040000fa
:020000040001f9
:0457fc00603f00000a
:020000040000fa
:1000080000030000000300000003000000030000dc
:1000180000030000000300000003000000030000cc
:1000280000030000000300000003000000030000bc
:1000380000030000000300000003000000030000ac
:10004800fa48000000030000000300001e42000000
:10005800000300000003000000030000000300008c
:10006800000300000003000000030000000300007c
:10007800ce2700000003000000030000000300007a
:10008800000300000003000000030000dc4700003c
:10009800000300000003000000030000000300004c
:1000a800000300000003000000030000000300003c
:1000b800000300000003000000030000000300002c
:1000c800000300000003000000030000000300001c
:1000d800000300000003000000030000000300000c
:1000e80000030000000300000003000000030000fc
:1000f80000030000000300000003000000030000ec
:1001080000030000000300000003000000030000db
:1001180000030000000300000003000000030000cb
:1001280000030000000300000003000000030000bb
:1001380000030000000300000003000000030000ab
:10014800000300000003000000030000000300009b
:10015800000300000003000000030000000300008b
:10016800000300000003000000030000000300007b
:10017800000300000003000000030000000300006b
:10018800000300000003000000030000000300005b
:10019800000300000003000000030000000300004b
:1001a800000300000003000000030000000300003b
:1001b800000300000003000000030000000300002b
:1001c800000300000003000000030000000300001b
:1001d800000300000003000000030000000300000b
:1001e80000030000000300000003000000030000fb
:0801f8000003000000030000f9
:020000040000fa
:1002080000030000000300000003000000030000da
:1002180000030000000300000003000000030000ca
:1002280000030000000300000003000000030000ba
:1002380000030000000300000003000000030000aa
:10024800fa48000000030000000300001e420000fe
:10025800000300000003000000030000000300008a
:10026800000300000003000000030000000300007a
:10027800ce27000000030000000300000003000078
:10028800000300000003000000030000dc4700003a
:10029800000300000003000000030000000300004a
:1002a800000300000003000000030000000300003a
:1002b800000300000003000000030000000300002a
:1002c800000300000003000000030000000300001a
:1002d800000300000003000000030000000300000a
:1002e80000030000000300000003000000030000fa
:1002f80000030000000300000003000000030000ea
:1003080000030000000300000003000000030000d9
:1003180000030000000300000003000000030000c9
:1003280000030000000300000003000000030000b9
:1003380000030000000300000003000000030000a9
:100348000003000000030000000300000003000099
:100358000003000000030000000300000003000089
:100368000003000000030000000300000003000079
:100378000003000000030000000300000003000069
:100388000003000000030000000300000003000059
:100398000003000000030000000300000003000049
:1003a8000003000000030000000300000003000039
:1003b8000003000000030000000300000003000029
:1003c8000003000000030000000300000003000019
:1003d8000003000000030000000300000003000009
:1003e80000030000000300000003000000030000f9
:0803f8000003000000030000f7
:020000040000fa
:020000040001f9
:082800000000fa00ffff3700a1
:020000040000fa
:020000040001f9
:041ffc0000020000df
:020000040000fa
:020000040001f9
:041ff800aeba00007d
:020000040000fa
:100de00000000000211000004220000063300000dd
:100df00084400000a5500000c6600000e7700000bd
:100e000008810000299100004aa100006bb1000098
:100e10008cc10000add10000cee10000eff1000078
:100e20003112000010020000733200005222000054
:100e3000b552000094420000f7720000d662000034
:100e400039930000188300007bb300005aa3000010
:100e5000bdd300009cc30000fff30000dee30000f0
:100e6000622400004334000020040000011400004c
:100e7000e6640000c7740000a4440000855400002c
:100e80006aa500004bb50000288500000995000008
:100e9000eee50000cff50000acc500008dd50000e8
:100ea00053360000722600001116000030060000c4
:100eb000d7760000f666000095560000b4460000a4
:100ec0005bb700007aa70000199700003887000080
:100ed000dff70000fee700009dd70000bcc7000060
:100ee000c4480000e558000086680000a7780000ac
:100ef00040080000611800000228000023380000ac
:100f0000ccc90000edd900008ee90000aff9000067
:100f100048890000699900000aa900002bb9000067
:100f2000f55a0000d44a0000b77a0000966a000023
:100f3000711a0000500a0000333a0000122a000023
:100f4000fddb0000dccb0000bffb00009eeb0000df
:100f5000799b0000588b00003bbb00001aab0000df
:100f6000a66c0000877c0000e44c0000c55c00001b
:100f7000222c0000033c0000600c0000411c00001b
:100f8000aeed00008ffd0000eccd0000cddd0000d7
:100f90002aad00000bbd0000688d0000499d0000d7
:100fa000977e0000b66e0000d55e0000f44e000093
:100fb000133e0000322e0000511e0000700e000093
:100fc0009fff0000beef0000dddf0000fccf00004f
:100fd0001bbf00003aaf0000599f0000788f00004f
:100fe00088910000a9810000cab10000eba10000b7
:100ff0000cd100002dc100004ef100006fe1000097
:1010000080100000a1000000c2300000e3200000ba
:10101000045000002540000046700000676000009a
:10102000b983000098930000fba30000dab300002e
:101030003dc300001cd300007fe300005ef300000e
:10104000b102000090120000f3220000d232000032
:101050003542000014520000776200005672000012
:10106000eab50000cba50000a89500008985000026
:101070006ef500004fe500002cd500000dc5000006
:10108000e2340000c3240000a0140000810400002a
:10109000667400004764000024540000054400000a
:1010a000dba70000fab7000099870000b89700009e
:1010b0005fe700007ef700001dc700003cd700007e
:1010c000d3260000f236000091060000b0160000a2
:1010d0005766000076760000154600003456000082
:1010e0004cd900006dc900000ef900002fe9000086
:1010f000c8990000e98900008ab90000aba9000086
:101100004458000065480000067800002768000089
:10111000c0180000e108000082380000a328000089
:101120007dcb00005cdb00003feb00001efb0000fd
:10113000f98b0000d89b0000bbab00009abb0000fd
:10114000754a0000545a0000376a0000167a000001
:10115000f10a0000d01a0000b32a0000923a000001
:101160002efd00000fed00006cdd00004dcd0000f5
:10117000aabd00008bad0000e89d0000c98d0000f5
:10118000267c0000076c0000645c0000454c0000f9
:10119000a23c0000832c0000e01c0000c10c0000f9
:1011a0001fef00003eff00005dcf00007cdf00006d
:1011b0009baf0000babf0000d98f0000f89f00006d
:1011c000176e0000367e0000554e0000745e000071
:1011d000932e0000b23e0000d10e0000f01e000071
:1011e0004153000033390000393300002052000021
:1011f000656100006465000072200000466900001f
:10120000726d000077610000726500007c7c000058
:1012100041530000333900003933000020460000fc
:10122000455200004d490000205200006561000059
:1012300064650000722000004861000072640000d4
:101240007761000072650000203100002e30000040
:101250000041000053330000393900003320000002
:1012600052650000616400006572000020460000c5
:10127000697200006d770000617200006520000057
:1012800025680000687800002e25000068680000ce
:10129000782e00002568000068780000206f0000ac
:1012a0006e20000041530000333900003933000044
:1012b00020460000455200004d4900002052000029
:1012c0006561000064650000722000004861000054
:1012d0007264000077610000726500002031000038
:1012e0002e3000000a000000000400000200000090
:1012f000bfaf0000a7a30000a1a00000b0b800008d
:10130000bcbe0000418800008a640000208200000a
:1013100061700000706c000046690000726d000092
:101320007761000072650000496e0000666f000082
:10133000726d000061740000696f00006e20000093
:101340006e6f000074200000737500007070000064
:101350006f7200007465000064000000400200002d
:101360004202000044020000480200006002000047
:0c1370006202000064020000680200003d
:020000040000fa
:10137c000000fa006208e20009003200811f070039
:10138c0011438000810f500005003900811f0700b8
:10139c0010c0b30064e8b7000000eb000100370098
:1013ac00100020000080fa00000006000000fa0087
:1013bc00881f78000044780002c8bf00884f500096
:1013cc0013003200e14f500003003200e24f500096
:1013dc0004003a0002003700380e07000100370005
:1013ec00fe130700e14f540003003200e24f54009b
:1013fc0005003a000300370060dd21002b0e0700ca
:10140c0001003700da1307000800780002e8b70083
:10141c004f0478000080fa00000006000000fa007b
:10142c00020007000080fa00000006000000fa002d
:10143c00b0cfb30074e8b7000080fa0000000600db
:10144c000000fa00889fbe000808e2000900340082
:10145c008004eb00a8802000080078009e0807009c
:10146c008904e800a802b00040408000808f54003e
:10147c00f9ff35004f04be000080fa0000000600a2
:10148c000000fa00eeff07000003eb008602780074
:10149c0014002000e39b2000064178008440780073
:1014ac00008b2000910c0700804078005ee8b700ac
:1014bc000004e00002003200008b2000c08f880086
:1014cc000180fb000080fa00000006000000fa001a
:1014dc00020007000080fa00000006000000fa007d
:1014ec0060438000104078000004e00003003200ec
:1014fc00e14f40000c003a0006003700ce06070012
:10150c000040eb0051110700b60607007468ef00ad
:10151c0007003700c806070010c0b3004b110700c6
:10152c007468ef000200370090cfb30074e8b70086
:10153c00804380000048eb0010002000904388009e
:10154c000080fa00000006000000fa00020007000c
:10155c000080fa00000006000000fa0080438000c2
:10156c008040eb0001587800015878000158780051
:10157c00015878000158780001487800600020007c
:10158c0090438800b0cfb30074e8b7000080fa0035
:10159c00000006000000fa00a70607000300070081
:1015ac00900607000080fa00000006000000fa0018
:1015bc007228ef00b0cfb30074e8b7000080fa00d7
:1015cc00000006000000fa00020007000080fa008c
:1015dc00000006000000fa00804380008040eb0011
:1015ec00015878000158780001487800600020000c
:1015fc0090438800b0cfb30074e8b70080438000fc
:10160c0000c8eb0080438000114098000080fa0075
:10161c00000006000000fa00020007000080fa003b
:10162c00000006000000fa00881f7800604380006c
:10163c000044eb001004e0000a003200104090005f
:10164c0098cfb300e34f500006003e007a06070027
:10165c0060438000104090006ae8b7006106070004
:10166c000044eb0080438000a2002000f10f20001a
:10167c00cbfd0700d1c5b300804380000148780042
:10168c0080438000818720009140780011409800b1
:10169c000041eb00804380002240980011c0b30051
:1016ac008043800031409800804380004240980085
:1016bc008043800052409800804380006240980034
:1016cc0080438000a18620009140780071409800f2
:1016dc0021c0b300804380000148980090438000f3
:1016ec00ea0f500002003600a00020009043880052
:1016fc000800780074e8b7004f0478000080fa0006
:10170c00000006000000fa00889fbe008a9fbe0001
:10171c000044780081447800820578000305780045
:10172c00450607000804e0000400350089407800f5
:10173c0008407800a90e0700020037000840780026
:10174c003e0e0700004deb0010002000800d7800cd
:10175c000000eb004f05be004f04be000080fa00f5
:10176c00000006000000fa00889fbe008a1f780067
:10177c000044780001057800820478002e060700ea
:10178c00084078005f0e0700804c780010002000a5
:10179c00000d7800130607000000eb004f057800e1
:1017ac004f04be000080fa00000006000000fa00a2
:1017bc0021060700030007000a0607000080fa0054
:1017cc00000006000000fa00881f780060438000cb
:1017dc001004e0000200320010409000fb100700e3
:1017ec004000200090438800884380000804e800f3
:1017fc00d1100700004c78007468ef004f0478009b
:10180c000080fa00000006000000fa00881f780033
:10181c002080200011c0b30090cf100001003a00ce
:10182c000268ef00614380001104e0000200320006
:10183c0011409000d7fdb700214090000004e0005b
:10184c000200320031409000d8fdb70041409000ba
:10185c000004e0000200320051409000dbfdb700b4
:10186c00614090000004e0000200320071409000e2
:10187c00d9fdb700014890000004e00002003200de
:10188c0011489000d6fdb700214890000004e000fc
:10189c000200320031489000ddfdb7004148900055
:1018ac000004e0000200320051489000dafdb7005d
:1018bc00614890000004e000020032007148900082
:1018cc00dcfdb7008043800008012000080178008f
:1018dc008000eb0032fd0700984388007468ef002d
:1018ec008043800071dd2100914078001140980008
:1018fc008043800081dd21009140780031409800c8
:10190c0080438000b1dd2100914078005140980067
:10191c008043800091dd2100914078007140980057
:10192c008043800061dd21009140780011489800cf
:10193c0080438000d1dd210091407800314898002f
:10194c0080438000a1dd210091407800514898002f
:10195c0080438000c1dd21009140780071489800df
:10196c004f0478000080fa00000006000000fa0026
:10197c00a5ff07000080fa00000006000000fa0036
:10198c00889fbe008a9fbe00800578000105780004
:10199c00a90507000044eb008844780002003700da
:1019ac00ef4f5400130032007e405400e34f5000c0
:1019bc0010003600d0cdb30000404400e54f50007d
:1019cc000c00360010cdb30000404400e34f500033
:1019dc000800360040c3b300804f540005003200ad
:1019ec0008407800c70d07008980fb0000f57800df
:1019fc008944e8000844e800e0c3b300804f540079
:101a0c00e7ff36000980fb00800de8007505070034
:101a1c000000eb004f05be004f04be000080fa0032
:101a2c00000006000000fa00a2872000e0972000ca
:101a3c00010020008041eb00035978006100500048
:101a4c00e0805800fcff3a000080fa00000006001d
:101a5c000800fa006c08ec0007000900305f780001
:101a6c008e00b1008000b1007305070020c0b300e8
:101a7c004efe070010c0b300f40f07006043800057
:101a8c00104a90008e01780010417800d1c2b3004a
:101a9c00a0872000541207005ee8b700510507002c
:101aac0080438000e1852000114878005ec8bf00ab
:101abc000080fb004240a9001400340013002000f9
:101acc0066032000e5fc2f00a48720004319dd00ed
:101adc008043800000014100670151000698b90065
:101aec0000804200040040000700090030597800d3
:101afc008200b1008000b1008301e8005ec8bf0025
:101b0c000080fb00830f5000f0ff3d007468ef0075
:101b1c004300dd000000e800904388000080fa00dc
:101b2c00000006001000fa00881f780068044700c7
:101b3c006043800007000900305c78008800b10029
:101b4c008000b1003c05070020c0b30017fe070061
:101b5c0010c0b300bd0f070000e8230001002000f7
:101b6c00bf1d070060438000804890000e01780084
:101b7c0008007800c0120700004478008040eb0099
:101b8c0001407800950d0700160507000800780045
:101b9c0074e8b700800020009043880080438000e8
:101bac00070009003e5878008000b1008e00b1009b
:101bbc004f0478000080fa00000006000a00fa00ca
:101bcc00881f78000e04e8006043800007000900bd
:101bdc00305c78008800b1008000b1001605070069
:101bec0020c0b300f1fd070010c0b300970f070031
:101bfc0000e8230001002000991d070060438000cd
:101c0c0010499000804890008e0178000800780000
:101c1c00f9120700004478008040eb000140780086
:101c2c006e0d0700ef0407000800780074e8b70099
:101c3c001000200090438800804380001e487800ec
:101c4c004f0478000080fa00000006000000fa0043
:101c5c005f48e20003003a001b00070010c0b3000d
:101c6c005fe8b7000080fa00000006000000fa00f0
:101c7c006243800002007800801f780010407800da
:101c8c0066e8b7004f0078000000e800904178004b
:101c9c00e1c061008000fd0067e8b7008000fd0036
:101cac001080fb00620060000080d10068e8b70083
:101cbc002240900069e8b700e4ff07007468ef0069
:101ccc000080fa00000006000000fa00881f78006f
:101cdc005e68ef0071040700004478000004e00027
:101cec0036003a0010c0b300b0fd0700918620000a
:101cfc009140780090c2b300380d07009086200008
:101d0c0081c0b30090cf100002003a00a0cab3000b
:101d1c00ca0c0700cafd0700e0a521006848e200d4
:101d2c0001003a000000eb006648e2000f003a00a8
:101d3c0074862000144278000482fb000402e9003f
:101d4c00d2dd21001241780000037800150020003c
:101d5c004f22de00e39b2000d1c2b300a0872000fd
:101d6c00e90907005ee8b7000e0037007486200012
:101d7c00144278000482fb000402e900d2dd210049
:101d8c001241780000037800150020004f22de007d
:101d9c00e39b2000d1c2b300a0872000530a0700a8
:101dac005ee8b7009086200081c0b30090cf100091
:101dbc0002003a00b0cab300a00c07000004fd00fa
:101dcc006be8b7000004fd00710407005ec8bf009b
:101ddc000080fb004f0478000080fa000000060031
:101dec000000fa00020007000080fa000000060064
:101dfc000000fa00889fbe006843800018407800fd
:101e0c000004e00004003a000000eb0040408800b1
:101e1c00804078003f003700e14f500005003a0049
:101e2c0080c0eb0040408000e20f500039003200cf
:101e3c0003003700e24f500001003a000828ef0081
:101e4c0079438000e88f5400310036004240800016
:101e5c000200e800404088000281fb00a002200044
:101e6c000091b900a7802000070041009840900025
:101e7c0001487800a8409000114098000280e800ca
:101e8c00870140003840900080497800484290001b
:101e9c000482fb00050020004602200002034300e0
:101eac0007034300048bbe00584090004800dd003f
:101ebc00cf80de00001b7200019372008202b00022
:101ecc0007014100e84090000149780078409000fb
:101edc00104198000180fb00670040008200200048
:101eec00110009000200d80000017800698054003c
:101efc00820f5000060039000300e800e80044009f
:101f0c008cfb0700c7fe07008040eb000100370088
:101f1c0091cfb3007228ef000100780074e8b7008d
:101f2c004f04be000080fa00000006000000fa001a
:101f3c004104070010c0b3001cfd07004a00070055
:101f4c000080fa00000006001000fa00889fbe0016
:101f5c008a9fbe008c9fbe00200798003107980016
:101f6c0042079800244f9800354f98006607980058
:101f7c00770798000404e00002003a00044f780050
:101f8c0030003700830678002e059000be059000c7
:101f9c008040eb00014f78002e00900000005500af
:101fac00100798000d0678008044eb00fe029000ac
:101fbc000c0278000a01be00be4890004e00900052
:101fcc00ac080700004478008944e8000004e000f5
:101fdc000300320000202e0041002000a01c07004e
:101fec00e7cf5400050032000804e0000300320083
:101ffc00dffc07000000e000ecff3a006448e20060
:10200c0002003200c8cbb300020037000804e00025
:10201c0003003200ee009000884878000c00370076
:10202c001e4078000040e800004f78006105450034
:10203c00e0854d008d86e800ae48900080cf5000c2
:10204c00d5ff3a001e4078000080fb001007980076
:10205c001e0090004f06be004f05be004f04be0090
:10206c000080fa00000006000200fa00889fbe0003
:10207c008a9fbe008c1f7800004feb0060438000ed
:10208c00304678001b1807000005be007043800026
:10209c00690050008004d1008003070000447800e0
:1020ac00004f78000004e00024003a00f4fc070024
:1020bc005e48e20003003a00f0cbb300004f78001a
:1020cc001f00370062438000e50041001104e0006e
:1020dc0009003a00624090000004e00006003a005b
:1020ec00724090000004e00003003a0002489000a7
:1020fc000004e00005003200c08f8000a00707003c
:10210c00004f78000004e0000c003a008743800088
:10211c008703e800c28f80000e0378008c427800a1
:10212c000942780063438000e98141000a00be0047
:10213c0085ff070000447800010037000044eb00e5
:10214c009303070020002000904388008043800008
:10215c00084878001e40780074e8b7004f067800f5
:10216c004f05be004f04be000080fa0000000600c0
:10217c000400fa008001eb00130798006280200035
:10218c00124178000280fb00000040006143800097
:10219c0001004000f04090008180fb00004890005e
:1021ac004800dd0080807000204080008080680046
:1021bc005008800000806800204088000241e80040
:1021cc000001fd0006e8b7000001fd00e54f5100dd
:1021dc00030036008001fd0006e8b7008001fd0019
:1021ec00004f78004800de001047980017c0b3007d
:1021fc000043eb00864278000e82e8008001eb0081
:10220c00020120008e00780000c9b300300f0700d7
:10221c000080fa00000006000200fa00889fbe0051
:10222c008a9fbe008c9fbe00644380009442900045
:10223c000580fb0001002000244190004811dd00c6
:10224c0003002000000041008180490034419000cf
:10225c008281fb00020020000005410081854900bd
:10226c0014407800e54f50006b00320005003e0032
:10227c00e24f50000a003200e44f500025013a00b2
:10228c0027003700e94f5000bd003200f04f5000de
:10229c00da003200e84f50001e013a008d00370082
:1022ac0070438000e40f500005003e0090cfb30057
:1022bc0074e8b70020002000904388001e0137000e
:1022cc005d0307000a01be0070c1b300860c070055
:1022dc00cc0e07008004780010c0b300db0d0700a3
:1022ec00940e0700000478000040eb00d70d0700a7
:1022fc00200020009043880080438000094854004f
:10230c00c840de004848de0080c05000804380009a
:10231c00114098007468ef00320307000601370083
:10232c0070438000e50f500005003e0090cfb300d5
:10233c0074e8b7001000200090438800fe003700be
:10234c00444090000004e000070032000040eb0025
:10235c00faf1b700dffdb7002aef88003bef8800e9
:10236c000aef88001bef8800fa51ec00faf1b70075
:10237c00df7dec0051c3b300814f500008003600e4
:10238c0001007800faf1b70010002000904388009b
:10239c00804380000048eb0074e8ef00e600370053
:1023ac000080fb004200dd00811f21000100400085
:1023bc000a88be006043800050409000defdb700ec
:1023cc0020ef800031ef8000800f5500818f5d0081
:1023dc00020036002aef88003bef880000ef8000f7
:1023ec0011ef8000800f5500818f5d0002003100dd
:1023fc000aef88001bef8800100020009043880033
:10240c008040eb0080438000014878000100780098
:10241c0074e8b700c800370080438000e1dd21007c
:10242c00114878008043800001de21009140780043
:10243c001140980000ef800011ef80004809dd008a
:10244c004800de0000007100c808de0082438000f6
:10245c00204198008043800021de210091407800cb
:10246c00314098008043800042de21001241780008
:10247c004240980020ef800031ef80004809dd00d9
:10248c004800de0000007100c808de0082438000b6
:10249c00504198008043800061de2100914078001b
:1024ac006140980080438000a21f210012417800f7
:1024bc007240980080438000f1dd2100914078004b
:1024cc000148980090002000904388007468ef0049
:1024dc009900370070438000e70f500005003e0064
:1024ec0090cfb30074e8b700100020009043880030
:1024fc00910037008580fb0051ef8800624380001b
:10250c00224090004800dd008080700051ef880070
:10251c00b24090008180fb0041ef88004240900067
:10252c004800dd008080700041ef8800d2409000b0
:10253c008180fb0001408800624090004800dd0073
:10254c0080807000014088007240900060e8b70005
:10255c001000200090438800804380000048eb006e
:10256c0041ef800010032000808f500002003e00dd
:10257c000000e80040ef88007468ef006e00370040
:10258c00700020009043880080438000a1de210071
:10259c001148780080438000b1de21009140780022
:1025ac00114098008043800082de210012417800a7
:1025bc00224098008043800091de210091407800f9
:1025cc003140980080438000028020001241780046
:1025dc004240980080438000118020009140780098
:1025ec005140980080438000028620001241780000
:1025fc00624098007468ef004f0037007043800011
:10260c00f10f500004003e0090cfb30074e8b70007
:10261c007228ef0048003700444490000884fb0007
:10262c00544090004800dd00000474008004eb006e
:10263c00090f78008002070070c0b300b10a0700d0
:10264c008046780080c0b300ae0a070000467800d0
:10265c008940780070c0b300e00a07008940780018
:10266c0080c0b300dd0a07000a01be0070c1b300d0
:10267c009d0b070010c0b3004cfb0700994388006a
:10268c00184388000900780064e8b70010c0b30054
:10269c00ee0c070000e8230001002000f01a0700f0
:1026ac00ae1a07006043800060409000e14f50007c
:1026bc0002003a00aefe07000900370017c0b30055
:1026cc000043eb00864278000e0278008001eb009c
:1026dc000301780083007800e0c9b300fc0d07000b
:1026ec00f23def0022fb07000000e000edff3a0096
:1026fc00d60c07008d40780070c0b300b70a0700f5
:10270c008c40780080c0b300b40a07003502070083
:10271c0009003700200020009043880080c0eb00a7
:10272c00804380000148780080438000114098006d
:10273c00b0cfb30074e8b7004f06be004f05be0023
:10274c004f04be000080fa00000006000000fa00f2
:10275c003902070010c0b30014fb07000200070089
:10276c000080fa00000006000800fa00889fbe00f6
:10277c008a9fbe008c9fbe0060438000b0407800f2
:10278c00614798005b1607000005be00924380006d
:10279c0002467800804380008000eb0080f907003f
:1027ac00be010700004478000004e0005a003a0023
:1027bc0033fb0700f8cbb30019c0b3005e48e2004e
:1027cc005600320062438000e50041001104e00035
:1027dc000b003a00624090000004e00008003a0050
:1027ec00724090000004e00005003a00024890009e
:1027fc000004e00002003a000044780008003700b2
:10280c00c08f8000de050700004478000004e00063
:10281c0003003200e8cbb30019c0b3003f0037000f
:10282c000c80fb000008a3002a0032008c438000bf
:10283c000000d100004f78008044eb000804e00059
:10284c0020003a003f00370061004500e0804d0059
:10285c001007980021079800c08f80008c02780028
:10286c0014c0b3000a01be00ee409000d40607006d
:10287c0000447800e0cdb300804f540002003a00d1
:10288c008944e800030037000804e00001003a0026
:10289c0089c4e8000c86e8008d46e9000804e000d5
:1028ac0008003a000d04e000050032001e059000ff
:1028bc00ae059000aefa07000000e000e2ff3a001f
:1028cc000044eb006448e20014003200c8cbb300b3
:1028dc00120037000c82fb000402d1000446780081
:1028ec00c08f8000854380000a01be00ee4090003e
:1028fc00b306070000447800e0cdb300804f5400cd
:10290c00050032008044eb000804e00003003a00ac
:10291c008c4446000100370019c0b3009c0107002d
:10292c000980fb00904388000800780074e8b70029
:10293c004f06be004f05be004f04be000080fa00db
:10294c00000006009e4078000104e00003003a00fd
:10295c000144780081447800daff37009e46780005
:10296c008044eb00d3ff37000000fa00b2010700ef
:10297c0010c0b3008dfa0700020007000080fa00b7
:10298c00000006000000fa00889fbe00694380002a
:10299c0042010700004478000004e0001d003a00ea
:1029ac00b7fa0700f8cbb3005e48e200190032001a
:1029bc0062438000e30041001104e00009003a008a
:1029cc00424090000004e00006003a0052409000a3
:1029dc000004e00003003a00624090000004e000b4
:1029ec0005003200c08f80006505070000447800a8
:1029fc000004e00007003a0082438000c08f800092
:102a0c00890078009c050700004478000004e00071
:102a1c000300320000202e0041002000101a070095
:102a2c005b0107000800780074e8b7001000200074
:102a3c00904388004f04be000080fa00000006009e
:102a4c000000fa00889fbe008a9fbe006943800088
:102a5c00c9459000594590007701070010c0b3009c
:102a6c0052fa07000d010700004478000004e00052
:102a7c000d003a0082fa0700f8cbb3005e48e20082
:102a8c0009003200c08f8000844380008a417800a6
:102a9c000b41780089007800a605070000447800f7
:102aac000004e0000300320000202e004100200052
:102abc00eb19070036010700100020009043880036
:102acc000800780074e8b7004f05be004f04be0044
:102adc000080fa00000006000000fa00624380004b
:102aec001204e000100032001240900065e8b700bc
:102afc000004e0000c0032002240900066e8b700b1
:102b0c00e30041009141780061c0610067e8b700c3
:102b1c001180fb00620060000080d10068e8b70003
:102b2c004240900069e8b7000000eb009043880039
:102b3c0074e8b7006548e20001003a00290107007b
:102b4c000080fa00000006000000fa003a010700bd
:102b5c0010c0b30015fa0700020007000080fa004d
:102b6c0000000600ca00fa00889fbe008a9fbe00c3
:102b7c008c9fbe0080438000924380008000eb005d
:102b8c0087f80700c50007000044780019002000f2
:102b9c000004e00050003a0039fa0700f8cbb3000b
:102bac00190020005e48e2004b00320061438000b7
:102bbc001104e00009003a00114090000004e0000c
:102bcc0006003a00214090000004e00003003a00a7
:102bdc00314090000004e00006003200c08f8000fd
:102bec00e7040700e8cbb300190020000004e00064
:102bfc0039003a0063438000d34090008180fb0091
:102c0c00434090000080fb004400dd004409de00de
:102c1c0002057000ef806000c808dd006340900082
:102c2c000080fb00008f7000f3469000034e900074
:102c3c00690055004301de004310dd000a0050001e
:102c4c00f00440008205e9000900e00002003a00af
:102c5c008205780089002000e98041000e84e8009c
:102c6c0083c0b30008007800f6140700c18f800001
:102c7c005102b0000b0044008941780022c0b3001f
:102c8c00f0140700834380008381e80017c0b30071
:102c9c000043eb008c4278000e0278000a017800a9
:102cac00880078000d407800890c070000447800fb
:102cbc00804380009e407800114098009e00780070
:102ccc00678040004300de008084e80000202e0076
:102cdc004100200062190700ad000700804380000e
:102cec0008487800994388000800780074e8b70019
:102cfc004f06be004f05be004f04be000080fa0018
:102d0c00000006000000fa00cb00070010c0b30062
:102d1c00a6f90700020007000080fa000000060078
:102d2c000000fa00889fbe008a9fbe008c9fbe00e8
:102d3c00984380004244de008b4380006243800055
:102d4c00124078000082fb00050020001240900029
:102d5c004800dd000100200004024000858248008c
:102d6c00224090008080fb00000020000406400000
:102d7c00858648007228ef0010c0b300330b0700a3
:102d8c000c01be0070c1b300d7090700acf90700f5
:102d9c000841e900e14f41001e0032000b05e8003c
:102dac008b84e80063844500024678000080eb00c9
:102dbc000090b900004041008046e900880178008d
:102dcc00090178008a0078000b007800e302070004
:102ddc000004e000060032000040eb00804d78005b
:102dec00004d780000c8b300804c7800004c78008f
:102dfc00e4854500400020007228b4000c46e90030
:102e0c000005450080844400000444008d4f5600aa
:102e1c00eaff3a000040eb000c0b07004f06be0027
:102e2c004f05be004f04be000080fa0000000600f3
:102e3c000000fa000040eb0002e8b70065e8b700bc
:102e4c0067e8b70068e8b70012c0b3000001fd00e6
:102e5c0066e8b7000001fd0061c0b3008000fd0012
:102e6c0069e8b7008000fd0081cdb3008000fd0053
:102e7c0060e8b7008000fd000001fd006ae8b700c3
:102e8c000001fd005fe8b7005ee8b700ef0a07003d
:102e9c00540007000080fa00000006000000fa0051
:102eac00ae180700640007000040eb00e70a0700bb
:102ebc00b41807000002780000408000800f520018
:102ecc00130031000100200002002000030020004c
:102edc000500200006002000070020000400500020
:102eec008580580006015900878159000440220052
:102efc00450f20006033b8003ef70700843e2000e9
:102f0c00050020006033b800c5f60700d418070090
:102f1c00a0180700fad1bf0006003a00c0fb2f0032
:102f2c006548e20018003a002e000700c0fb2f0095
:102f3c0015003700b14380008100e800b1438800e0
:102f4c000080fb00808f5000010039007628ef00d4
:102f5c00b04380004200dd00c11f21000100400091
:102f6c001001be0070c1b3005f09070040ef800084
:102f7c0010438800791807006468ef0010c0b30094
:102f8c00b20a07000000eb000080fa000000060007
:102f9c000000fa007f180700a086200021c0b300b3
:102fac0090cf1000020032000040eb00a70a07008f
:102fbc006548e20001003a000a0007000080fa00b0
:102fcc00000006000000fa000000eb006548e2007b
:102fdc00020032001dfb0700100020000080fa00e8
:102fec00000006000000fa006ac8bf00e14f500064
:102ffc000800320005003900e24f50000700320093
:10300c00e34f500009003a0006003700a209070000
:10301c0007003700360a070005003700430a07008f
:10302c0003003700500a0700010037009a09070017
:10303c000080fa00000006000000fa006ac8bf0019
:10304c00e14f50000800320005003900e24f5000fb
:10305c0007003200e34f500009003a000600370029
:10306c00c9090700070037002d0a070005003700c3
:10307c003a0a070003003700470a0700010037002f
:10308c00c10907000080fa00000006000000fa00e9
:10309c00881f780080427800030478000100e0006b
:1030ac00210032006568ef00ffcf52001e003e0089
:1030bc0062438800714388008443880013007800c1
:1030cc0090438800b0cfb30074e8b7000582fb00d2
:1030dc000540780062c0b3000440bc000280e800e8
:1030ec0003b6210060807900808f50000e003900fb
:1030fc0062807900910f2000980f10000b003900ae
:10310c006620b9006400400002b62100600079001e
:10311c000000010090438000000c780074c8bf00d0
:10312c008080fb0001003700b10f20000100780007
:10313c004f0478000080fa00000006000000fa003e
:10314c00889fbe008a9fbe008c9fbe000002780044
:10315c008104780002047800030678008001eb00fb
:10316c00830878005f48e200c6003200ea0f560080
:10317c00c400360050c0b300004a780065c8bf00d8
:10318c00004978005e48e20020003a0013419800a4
:10319c00234198006bc8bf0030419800b0438000b9
:1031ac004200dd000080e800a21f21006040790091
:1031bc0040449800b04380004200dd000200400013
:1031cc00a000900010009000480add004800de00ce
:1031dc0000007200c808de0050449800b043800024
:1031ec004200dd0002004000404090006044980026
:1031fc0070002000800c78008001fd005fe8b700b3
:10320c0007e8b7008001fd009e0037003000200069
:10321c00800878008286e800804eeb0073802000e6
:10322c0093417800e485200014427800834f5200cb
:10323c0088003e00830037008382fb00600320007f
:10324c0000a8b9004002b000a287200060407900bd
:10325c000080fb00190040006b004000800f5600fe
:10326c0088003900034052000040e90010449800e7
:10327c009d4ee8006203200002a8b900000378000c
:10328c004502200080824200aa87200065407d0014
:10329c000080fb0019004000e80c40008002200078
:1032ac000600400060407d0080757c000b004400ef
:1032bc006102200086804000b4872000e1407a0043
:1032cc0011409800b1438000c208dd008180e80005
:1032dc00a41f2100e1407a0021409800b1438000f6
:1032ec00c208dd008480400011019000a101900013
:1032fc00c818dd004811de0002817000c819de001c
:10330c0032409800b1438000c208dd008480400048
:10331c00c140900041409800e5407d0081c0e8002c
:10332c00514098008680e800e1407d0061409800a3
:10333c00e3004300e1407d007140980068004000cc
:10334c0065417d000281fb00e40043008a8040005f
:10335c0078f607006848e2002800320007c8bf0072
:10336c000080fb00620320000280b900800178001d
:10337c00410220008080400061407d000080fb0005
:10338c00008045000800400082022000030141003b
:10339c00b487200062427a000448980061407d00a6
:1033ac000080fb00008045000000440069004000e4
:1033bc00b187200062c178000281fb00a1022000cd
:1033cc00838040008a8040005af6070007c8bf007f
:1033dc000080fb00620320000280b9008002b00074
:1033ec00b487200060407a000080fb00808045009c
:1033fc008105e80019004000800ce8007380200073
:10340c00934178000380fb00620320000280b90026
:10341c004002b000a2872000604079000080fb00d1
:10342c0000804500e80540008341e8000300780077
:10343c0007e8b700e48520001442780084cf5100df
:10344c007dff39000040eb005fe8b70007e8b700ec
:10345c000c0037008382fb006003200000a8b90039
:10346c004002b000a2872000604079000080fb0081
:10347c00190040006b0040003b002000800f5600fc
:10348c0078ff31000000eb004f06be004f05be0078
:10349c004f04be000080fa00000006000000fa0095
:1034ac0090cfb30074e8b7000080fa00000006006b
:1034bc000000fa00889fbe008a9fbe0000047800be
:1034cc000040eb00106c9800a90220008884440096
:1034dc008902780044c0b3006011b80021c0b30069
:1034ec0008007800b6030700004278000004e000f2
:1034fc0026003a0080c0b300106c9800e8844400a9
:10350c004a0020000b0020008902780014c0b30090
:10351c000a01be0021c0b30008007800a803070010
:10352c00004278000004e0000a003a006105450002
:10353c00e0854d001868900000c0e800106c980001
:10354c008984e800e60f5500e08f5d003e003200f4
:10355c00edff3700e0cdb300804f520006003a007b
:10356c000a0045008b804d00a002b00060407c003a
:10357c00e34f50003200320010c0b300106c9800c2
:10358c00d0cfb300206c980030003700e0cdb300f2
:10359c00804f520025003a0028689000e34f5000fd
:1035ac0022003a006055b8008902780014c0b300bc
:1035bc000a01be0021c0b300080078008003070098
:1035cc00004278000004e0000a003a006105450062
:1035dc00e0854d001868900000c0e800106c980061
:1035ec008984e800e60f5500e08f5d00160032007c
:1035fc00edff3700e0cdb300804f520006003a00db
:10360c000a0045008b804d00a002b00060407c0099
:10361c00e34f50000a00320010c0b300106c980049
:10362c00e0cfb300206c98000800370010c0b30046
:10363c00106c980000c0eb00206c98000300370061
:10364c00e4cdb300010037000042eb000400fb00a6
:10365c004f05be004f04be000080fa0000000600bb
:10366c000600fa00889fbe008204780003447800ac
:10367c00e50147000e017800521207005e419000f0
:10368c00884178008e007800090078006d120700e0
:10369c005e4090000080fb004f04be000080fa00ea
:1036ac00000006000200fa00889fbe000004be0065
:1036bc000e01780021c0b300a0c2b3007806070049
:1036cc001e4c78001e409000804c78004f04be00c9
:1036dc000080fa00000006000400fa00889fbe007b
:1036ec008a9fbe0000057800006890008085fb0072
:1036fc0010002000000f7800e30445008000eb0070
:10370c0091ef880048d62100c20220000800780002
:10371c00a3f507009a40d000eec060001a4090005c
:10372c004200de006100600080c0700000cab3007f
:10373c0080c070000100780064fdb7009a409000d2
:10374c00c608dd002a4090004400dd000043b200b2
:10375c0080c070000100780065fdb7002a10900051
:10376c00ba10900043c0b30052d62100bcff070032
:10377c008083fb000701e8008a6890008180fb00d1
:10378c00c408de0001717c000781e8008a689000a3
:10379c00c408dd0001717c0080c1e8000b43780097
:1037ac00e7cf5500110036000802780005cfb300b2
:1037bc000381fb001980fb004400de00e2407a002c
:1037cc000140700000717a008341e8008380fb00a7
:1037dc003980fb004400dd000540600080707a00f9
:1037ec0068435300e74f5300f1ff3e000604e0002e
:1037fc0009003a008381fb0042d621001a68900030
:10380c004300dd0068406000e34079000140700037
:10381c0080717900210037000683fb0068001300db
:10382c00f20f20000011dd000382fb0043d62100c3
:10383c000281fb00c410de001980fb004400de0096
:10384c0080c0600064c0790080c0700001f2790013
:10385c008402e8004411dd001980fb004400dd0007
:10386c000041610082f279009a689000e18060006a
:10387c00670313008608dd008180fb004409de002d
:10388c0064c079000240700000f27900c408dd00c9
:10389c0065c079000140700080f279004339dd0089
:1038ac00028145007501410017c0b3000043eb00d5
:1038bc00874278000e0278008e81e80041d6210004
:1038cc0000c9b300820907004f05be004f04be00bb
:1038dc000080fa00000006000000fa0073d92100f5
:1038ec0093417800c519dd000342b20022d92100b2
:1038fc00124178004311dd007841610082c17100f2
:10390c0032d92100124178004211dd00644161007e
:10391c0082c1710042d921001241780063416100db
:10392c0002c8710053d9210093417800c619dd00fb
:10393c0062d92100124178004511dd000242b2002b
:10394c0082c1710081c04000fec0600081c1710065
:10395c00134098000080fa00000006000400fa00f2
:10396c00889fbe008a9fbe008c9fbe008005780099
:10397c00010578000206be0000c1b300e105070096
:10398c00804478008040eb0040d62100d2ff070035
:10399c0002012000020f780017c0b3000043eb00b7
:1039ac0085d92100954278000e0278008001eb0049
:1039bc0041d6210080c9b300450907004806200004
:1039cc000004e000060032000000fb002500370078
:1039dc0090c3b300cb0507000068a30003003a00b6
:1039ec000804e900e10f4400f9ff3a008a0078006e
:1039fc000b0078002bff070000cfb30000c464005d
:103a0c0088407800b140b30000c1b300f305070053
:103a1c00b7080700004e780088407800c140b3001a
:103a2c0000c1b300ed050700b1080700804e780017
:103a3c008e01780000012000801978008043eb0093
:103a4c000743780085d92100954278000e02780052
:103a5c000001eb008000eb00074078001c09070018
:103a6c000000fb004f06be004f05be004f04be0019
:103a7c000080fa00000006000200fa00889fbe00d9
:103a8c008a9fbe008c1f78000005780001447800e6
:103a9c00830578000446780009012000090f78009e
:103aac000104e0001200320080c9b30080cf500046
:103abc001b003a008240780040d6210086ff0700a8
:103acc0017c0b300d6c9b30085d921009542780040
:103adc000e0278008a0178000901780041d6210095
:103aec0008407800fa08070080407800170037007b
:103afc0017c0b300d6c9b30085d921009542780010
:103b0c000e027800800178000001eb008000eb00d1
:103b1c000040eb00ee080700804078000b003700f7
:103b2c0017c0b300d6c9b30085d9210095427800df
:103b3c000e0278008a0178000001eb008000eb0097
:103b4c0008407800e2080700804078000001eb0094
:103b5c00f0cdb30080cf5000580032000104e000db
:103b6c005300350000162000000f7800f0c9b30098
:103b7c000b00e000010032000c4078008043eb00a9
:103b8c000043780085d92100954278000e02780018
:103b9c0043d621000001eb00830078000740780039
:103bac00cb08070041d621009140780021459800b0
:103bbc0051d6210091407800314598000004e00076
:103bcc003b0035001e007800ef0f50003800360027
:103bdc00670040004300de0000c0e900406598002b
:103bec0001c2b300814f50000100360041659800be
:103bfc00640045004a6190000281fb0061d62100ff
:103c0c004cf407000b00e0000d00320071022000a4
:103c1c008a804000800220000a004000a1fe0700bc
:103c2c00aa409000810fb200c288de004a6090006a
:103c3c000080fb00808f50001f0032001c003700fa
:103c4c0000022000000f78008043eb000c4378004a
:103c5c0085d92100954278000e027800530220008d
:103c6c008a8141000001eb008000eb0007407800e6
:103c7c009708070000447800710220008a804000f9
:103c8c00800220000a00400086fe07000804e000c5
:103c9c0007003500aa409000810fb200c288de00f8
:103cac004a6090000080fb00808f500002003200c0
:103cbc000081eb00010037001200200002007800a8
:103ccc004f0678004f05be004f04be000080fa007e
:103cdc00000006000200fa00889fbe008a9fbe000a
:103cec00000578000144780083047800844578004e
:103cfc0000162000000f78000104e00016003200ce
:103d0c0080c9b30080cf500023003a008240780075
:103d1c0040d62100f0fe07000040eb000900e00057
:103d2c00010032000b4078008043eb000043780028
:103d3c0085d92100954278000e02780043d62100e7
:103d4c00020120008300780080c9b30060080700de
:103d5c00804078001f0037000040eb000300e000bb
:103d6c0001003200044078008043eb0000437800ef
:103d7c0085d92100954278000e02780043d62100a7
:103d8c000001eb008000eb000740780050080700b2
:103d9c00804078000f0037000040eb000300e0008b
:103dac0001003200044078008043eb0000437800af
:103dbc0085d92100954278000e02780043d6210067
:103dcc000001eb008000eb00084078004008070081
:103ddc00804078000001eb00f0cdb30080cf5000a4
:103dec004400320064ddbf002045980065ddbf0053
:103dfc00304598000104e0003b0035001e007800bf
:103e0c00ef0f500038003600670040004300de0022
:103e1c0000c0e9004065980001c2b300814f50001a
:103e2c000100360041659800640045004a6190002d
:103e3c000281fb0061d62100bef307000900e000ff
:103e4c000d003200710220008a80400080022000a8
:103e5c000a00400013fe0700aa409000810fb20038
:103e6c00c288de004a6090000080fb00808f50000a
:103e7c001f0032001c00370000022000000f7800e9
:103e8c008043eb000b43780085d9210095427800e4
:103e9c000e027800530220008a8141000001eb00e1
:103eac008000eb0007407800090807000044780008
:103ebc00710220008a804000800220000a0040002d
:103ecc00f8fd07000804e00007003500aa40900048
:103edc00810fb200c288de004a6090000080fb00b7
:103eec00808f5000020032000081eb00010037008f
:103efc0012002000020078004f05be004f04be00e7
:103f0c000080fa00000006000200fa000202200005
:103f1c00020f780012ccb3000001fd0064fdb70065
:103f2c000001fd00801f78001040780065fdb7008f
:103f3c004f0078001040900066fdb70017c0b3002a
:103f4c000043eb0085d92100954278000e027800e1
:103f5c00810178008201200041d6210000c9b30004
:103f6c00db070700d1fb2f000004e0000100350047
:103f7c008000eb00010078000080fa0000000600d1
:103f8c000a00fa00889fbe008a9fbe008c1f780032
:103f9c000004be002bc0b3000e86e800e70047000b
:103fac005002200008004000d7ff07000004e0008a
:103fbc0029003a0060ccb30064fdb70067004700ed
:103fcc009940780010c0680065fdb700194090005a
:103fdc008e4890000140680066fdb7005860900064
:103fec0067fdb7006860900068fdb7000002200014
:103ffc00000f780017c0b3000043eb0085d92100f7
:10400c00954278000e0278008c0178008202200024
:10401c0041d6210000c9b300ad070700004178006c
:10402c000004e0000e0035008984e800e860900090
:10403c003e409000814f500009003a0058609000bb
:10404c009c4f100006003a008b45e900d3ff3a0064
:10405c000200fb00030037000000fb0001003700ea
:10406c00e0fb2f004f0678004f05be004f04be004a
:10407c000080fa00000006000200fa00881f780099
:10408c00800178000204780012022000020f7800f0
:10409c0052cab300024c780052ccb3000200780034
:1040ac0064fdb7001140780065fdb7001140900029
:1040bc0066fdb700a140900002cfb30082c0600043
:1040cc000100780067fdb70051022000838040009a
:1040dc0043c0b30022c0b30070d62100d90f070033
:1040ec0017c0b3000043eb0080c2eb000e02780057
:1040fc0043d62100c20220008300780010c9b3000f
:10410c007307070080407800e0cdb30080cf5000eb
:10411c0004003a001e00e0000200320064ddbf0023
:10412c00004c78000100fb004f0478000080fa007e
:10413c00000006000800fa00889fbe008a9fbe009f
:10414c008c9fbe000104780002467800434798001b
:10415c003407980001022000110798008bd9210028
:10416c009b45780051cab300014a78000dc9b300d1
:10417c008004eb005a022000000545008e007800f8
:10418c000a00780060ff0700804078000004e0001f
:10419c0028003a00e1cf540005003a00100220003c
:1041ac00100798004e4690001dc9b30080c5eb0067
:1041bc0040ccb30064fdb700984078001ec0680086
:1041cc0065fdb700184090009e40900001406800cb
:1041dc0066fdb7004560dd0067fdb70053c0b30056
:1041ec0022c0b3008a00780070d62100950f07001a
:1041fc0017c0b3000043eb008b4278000e82e8003e
:10420c0043d62100b2022000830078000d407800d4
:10421c002f070700804078000004e00005003a00fa
:10422c000884e8008904e800e28f54000b00320097
:10423c00d2ff3700e0cdb30080cf500007003a002a
:10424c001e0090000000e000040032003e019000cf
:10425c0064ddbf0000497800e1cdb3000100fb0034
:10426c004f06be004f05be004f04be000080fa0092
:10427c00000006000400fa00889fbe008a9fbe0062
:10428c008c9fbe00014578000204be000406be00ef
:10429c00110220001107980051cab300814a78001e
:1042ac005b022000808545008e0078000b007800b2
:1042bc0015ff07000004e000020032000000fb00c4
:1042cc003a00370030ccb30064fdb7004650dd0037
:1042dc0065fdb70063c0b30052d621000800be00d4
:1042ec00dffc07009c4078001ec168008084fb0046
:1042fc008901e80048d621000281fb004210de0053
:10430c00e3407c000140700080717c008981e800f2
:10431c004611dd0082717c001c4090009e40900094
:10432c00014068000080fb00c200de00014171000a
:10433c0082717c00e38044004600dd0080707c00cc
:10434c0070d621000080440063c0b30022c0b300cb
:10435c008b0078003b0f07004348dd00a2022000d1
:10436c000001410017c0b3000043eb0080c2eb001a
:10437c000e82e800880178008800780010c9b3002c
:10438c00d306070080407800e0cdb30080cf50000a
:10439c0005003a001e0090000000e0000200320010
:1043ac0064ddbf00804e78000100fb004f06be00ac
:1043bc004f05be004f04be000080fa00000006004e
:1043cc000200fa00889fbe008a9fbe008c1f7800f6
:1043dc00000578000203be00850578000484fb000c
:1043ec004440dd0012022000020f400020ccb3003c
:1043fc0064fdb700c608dd000100780065fdb7005c
:10440c0063c0b30052d621000600be0094fc070026
:10441c000086fb000c01e80049d621004240de007a
:10442c00e2c07c000140700000f17c000c80e800d0
:10443c004644dd0008f07c00510220008a804000d8
:10444c0060d621000000460063c0b30022c0b30058
:10445c00fc0e07004360dd00220220000001410039
:10446c0017c0b3000043eb0085d9210095427800ba
:10447c000e0278008b0178008900780010c9b30017
:10448c00930607000000fb004f0678004f05be00a6
:10449c004f04be000080fa00000006000a00fa007b
:1044ac000e01780091c0b30010c0b300fc020700ed
:1044bc000080fa00000006000000fa004060900046
:1044cc008080fb000004e000040032000000eb00e0
:1044dc000000e800810f5000fdff39000080fa0059
:1044ec00000006000000fa000104e00004003200a5
:1044fc000040eb000040e80080cf5000fdff3a0088
:10450c000080fa00000006000c00fa00889fbe0034
:10451c008a9fbe008c9fbe002007980081457800c2
:10452c0062479800430798000405780056079800e6
:10453c0090c9b300004f78000500e00002003a007b
:10454c008040eb00014f78005e0190000200e0001b
:10455c00030032000040eb00004f78001a002000ee
:10456c0010c0b3003905070042d6210021c0b300aa
:10457c0070c3b300ca0207008000eb0091ef880003
:10458c000b04e000090032002e009000014178007d
:10459c000148780011409800416098000241e80001
:1045ac006003b00082cf5500f9ff3a00ee40900056
:1045bc000181fb0010002000010020000201e90035
:1045cc00030033000000400081804800fbff3700ef
:1045dc00100798008006eb008cc9b3008d0478009e
:1045ec000b80fb00808f56002e00310060032000f2
:1045fc0000e8b9002e019000000441008a01ea0095
:10460c008a817100cf19de001e427800e181110011
:10461c006e4190008c4078000800780016fd070071
:10462c000004e00005003200e14f500007003200aa
:10463c00e14f400011003a00020037009cc9b30062
:10464c000e0037009cc9b3000c0037000046eb008d
:10465c001e4078000004e00001003a009cc9b30041
:10466c00de0090000100e00003003200080078003a
:10467c00010001009cc9b3008d06e8004e019000ba
:10468c0002000100800078001e0190000200e90089
:10469c00890f5000030032008904e8000100e0009b
:1046ac00cfff3a005e0090000000e00004003a00ea
:1046bc000096200001002000e912070005003700d9
:1046cc0090c9b3005d020700000820001f0307001b
:1046dc00f23def000d0078004f06be004f05be0006
:1046ec004f04be000080fa00000006000c00fa0027
:1046fc00889fbe008a9fbe008c9fbe00200798003a
:10470c0081457800624798004307980004057800bb
:10471c005607980090c9b300004f78000500e000e0
:10472c0002003a008040eb00014f78005e019000df
:10473c000200e000030032000040eb00004f780064
:10474c001a00200010c0b300c004070042d621009c
:10475c0021c0b30070c3b30051020700f23def005b
:10476c0010c0b30067020700f1ccb3000140600039
:10477c000a00e00003003200804078000154a000e1
:10478c0002003700804078000144a00010c0b30044
:10479c00920207000b04e0000a0032002e00900089
:1047ac000041eb00824078000148780011409800ed
:1047bc00416098000241e8006003b00082cf5500d0
:1047cc00f9ff3a00ee4090000181fb001000200040
:1047dc00010020000201e90003003300000040004a
:1047ec0081804800fbff3700100798000006eb00a3
:1047fc008dc9b3008c0478000b80fb00800f560031
:10480c002c0031006003200000e0b9002e01900064
:10481c00000441008a01ea008a817100cf19de0090
:10482c001e427800e18111006e4190008d407800ad
:10483c000800780027fd0700e14f40001300350009
:10484c000004e00003003400e14f50000f003a0078
:10485c00020037009dc9b3000c0037008046eb0006
:10486c001e4078000004e00001003a009dc9b3002e
:10487c00de0090000100e000030032000800780028
:10488c00010001009dc9b3000c06e8004e01900028
:10489c0002000100800078001e0190000200e90077
:1048ac00890f5000030032008904e8000100e00089
:1048bc00d1ff3a0010c0b30012020700f1ccb300d4
:1048cc008140600010c0b300440207005e009000fd
:1048dc000000e00004003a000096200001002000d7
:1048ec005f1207000500370090c9b300d301070021
:1048fc000008200095020700f23def000c00780044
:10490c004f06be004f05be004f04be000080fa00eb
:10491c00000006000a00fa008000780012c0b30004
:10492c000200780097fdb70000d9210006000900ad
:10493c00315878007100b10020d92100904f11003e
:10494c0002003e000200780093fdb7001140900079
:10495c00e84f50006200320005003e000004e00009
:10496c009d003200e64f5000ce003a007b0037002d
:10497c00ec4f50001b003200ef4f50000300320090
:10498c00e94f5000c7003a003600370000c2b300b0
:10499c00004f780000cfb3001047980011c0b3004f
:1049ac0021479800d0c4b3003047980030c0b30002
:1049bc004047980020c0b3005047980061479800ca
:1049cc0020d9210090cf10000300360040c0b30066
:1049dc00704798009200370070c0b3007047980081
:1049ec008f00370000c2b300004f780000ccb3003a
:1049fc0010479800905de20006003a000040eb0082
:104a0c0097fdb70020479800a0cfb300304798001f
:104a1c000400370020c0b30020479800b0c9b30091
:104a2c003047980040c0b3004047980030c0b300f6
:104a3c005047980020c0b3006047980020d921004f
:104a4c0011c0b30090cf10000300360040c2b30079
:104a5c00704798007200370070c2b300704798001e
:104a6c006f00370000c2b300004f780000c9b300dc
:104a7c0010479800905de20006003a00977def0029
:104a8c0010c0b3002047980090c3b3003047980083
:104a9c000400370030c0b3002047980010c4b300a6
:104aac003047980050c0b3004047980050479800da
:104abc0040c0b3006047980020d9210012c0b30059
:104acc00904f11000300360040c3b30070479800ac
:104adc005300370070c3b300704798005000370084
:104aec0000c2b300004f780000c8b3001047980014
:104afc00905de20006003a00977def0010c0b30015
:104b0c002047980070c7b300304798000400370066
:104b1c0030c0b3002047980080ceb30030479800d7
:104b2c0060c0b3004047980050c0b3005047980095
:104b3c006047980020d9210013c0b30090cf11001a
:104b4c000300360040c3b3007047980034003700b0
:104b5c0070c3b300704798003100370000c2b30037
:104b6c00004f780000c6b3001047980000d9210010
:104b7c0011c0b30090cf100005003a00977def00f4
:104b8c002147980040cfb30030479800040037000d
:104b9c0050c0b3002047980050c3b3003047980072
:104bac00a0c0b3004047980050c0b30050479800d5
:104bbc0080c0b30060479800925de20003003200b1
:104bcc00f0c3b3007047980015003700f0cbb3006a
:104bdc00704798001200370000c3b300004f7800f4
:104bec008040eb001147980070c0b300204798003c
:104bfc0000cdb30030479800f0c3b3004047980095
:104c0c00c0c0b300504798007840400060479800ff
:104c1c0000c0eb00704798000100780097fdb700ca
:104c2c0090ddbf001e4f70009e40900000cfb3007f
:104c3c0080c0600022d9210092c0700093ddbf00bb
:104c4c004300dd0001407000104798005e4090006a
:104c5c0098fdb70082c0b3008e00780020c0b3006e
:104c6c0046010700c0c3b30026010700c1cfb30043
:104c7c000140600052d9210092407000014f780031
:104c8c00c0c3b3005501070010c0b3001d010700dd
:104c9c0081cfb30081406000014f780010c0b30099
:104cac004e0107000080fa00000006000000fa0028
:104cbc0018ff07000080fa00000006000000fa0050
:104ccc000080fa00000006000000fa0000d9210064
:104cdc000080fa00000006000400fa00889fbe0065
:104cec008a1f78008c9fbe000006be00f4020700ed
:104cfc0058c5b300084f7800a9cab30019479800eb
:104d0c0000c0eb00204798000040eb0030479800b3
:104d1c0042c0b3008e00780030c1b3001701070009
:104d2c003033230031332300008fbe000e01780096
:104d3c0041c0b30030c1b300d90007009e4f14002e
:104d4c008a003a001e459000894f550087003a00b2
:104d5c002e409000e14f400084003a003e4090000d
:104d6c000004e00081003a00d50207000e01780033
:104d7c0041c0b30030c1b300c90007009e4f1400fe
:104d8c007c0032001e4090008a4f500079003200a7
:104d9c002e409000e14f4000760032003e409000e3
:104dac000004e0007300320000e823000100200042
:104dbc002b11070001c2b30050c3b3000701070059
:104dcc0031c0b300d0c3b3000401070000c9b30065
:104ddc009a00070042c0b3008e007800f0c3b30005
:104dec00e600070042c0b3008e007800f0c3b300a9
:104dfc00e200070042c0b3008e007800f0c3b3009d
:104e0c00de00070042c0b3008e007800f0c3b30090
:104e1c00da00070042c0b3008e007800f0c3b30084
:104e2c00d600070042c0b3008e007800f0c3b30078
:104e3c00d2000700000220004401070031002000ce
:104e4c00f2bdab004c0032000004eb0098ef880080
:104e5c009b02070040c8b3007800070021c0b300d4
:104e6c0008407800dd0007008840780010c0b300cf
:104e7c00da00070001c3b30020c0b300d70007005d
:104e8c0041c5b30070c1b300d4000700884078005e
:104e9c0000c1b300d100070001c8b300d0c0b300fb
:104eac00ce000700b1c1b300b0c0b300cb00070007
:104ebc0021c2b300c0c0b300c800070000c2b300d9
:104ecc00004f7800d0cdb3001047980010c0b3004d
:104edc002047980032c0b3008e00780030c1b30078
:104eec00a600070051c3b30020c1b300bb000700ec
:104efc0088407800e0c0b300b800070080c0eb0029
:104f0c0050c3b300b500070071c0b30060c3b30059
:104f1c00b200070001c1b300a0c3b300af0007008b
:104f2c000c01be0070c1b3006f010700c0cbb30011
:104f3c002603070000202e0041002000c8100700a7
:104f4c00a0c2b3006f00070000417800630061004d
:104f5c004100200008003200510020000218a3007c
:104f6c00050032008000eb00030037001100200028
:104f7c000100370021002000010078004f06be0020
:104f8c004f0578004f04be000080fa0000000600b8
:104f9c003600f800809fbe00829fbe00849fbe003a
:104fac00869fbe000200fa00f45de20003003200ae
:104fbc00001e200001002000a91007008680a90017
:104fcc0023c0b3000e01780011c0b30050df2100e4
:104fdc003a0f07001e80fb009e409000c808dd00c1
:104fec0001007000f23db700cbc2bf000068a30007
:104ffc00f2ff3a000080fa004f03be004f02be00e1
:10500c004f01be004f00be003600f9000040060004
:10501c000000fa0030c3b3003a000700804078006b
:10502c0000c6b30080cf500001003600f47def00c5
:10503c000180fb000080fa00000006000200fa006c
:10504c00004f78009680a90015c0b3000542780087
:10505c008041eb000001eb00854078000e007800e9
:10506c00fd0e07009680a8000080fa0000000600e4
:10507c000200fa00004f78001147980015c0b300e9
:10508c000042eb00844178000001eb0021c0b3002a
:10509c000e007800f00e07000080fa0000000600f9
:1050ac000200fa00004f78009680a9001e64a00050
:1050bc0015c0b30024c0b30081417800854078004e
:1050cc000e007800e40e07009680a8000080fa001d
:1050dc00000006000000fa00010178009680a9008b
:1050ec0015c0b30024c0b30080417800854078001f
:1050fc0060df2100d80e07009680a8000080fa001f
:10510c00000006000400fa00204798009680a900d1
:10511c00d1cdb30001404000e34f500009003e00e8
:10512c000e00780001cbb3000168780015c0b30005
:10513c000042eb00844178000001eb0085407800d0
:10514c00c50e07002e4090000064a0002047980078
:10515c0015c0b30005427800854178000e01780037
:10516c00854078000e80e800bb0e07009680a800f2
:10517c001e80fb000080fa00000006000200fa000e
:10518c00889fbe00004f78008104780002447800ac
:10519c009680a90015c0b3000042eb008441780052
:1051ac000001eb00854078000e007800aa0e070085
:1051bc008042eb0024c0b300854178000001eb0075
:1051cc008840780009007800a30e07009680a8009c
:1051dc004f04be000080fa00000006000400fa0034
:1051ec00004f7800114798009680a900d1cdb300ec
:1051fc0001404000e34f500009003e0000cbb300db
:10520c002047980015c0b3000042eb0084417800a1
:10521c000001eb00854078000e80e8008e0e070040
:10522c0015c0b300054278008041eb000001eb0093
:10523c0021c0b3000e007800870e07009680a800ee
:10524c000080fa00000006000200fa00889fbe00f1
:10525c00024f780083047800044478009680a900fb
:10526c0015c0b3000042eb00844178000001eb0054
:10527c00790e07008042eb000542780085417800ea
:10528c000001eb0011c0b3000e007800720e070095
:10529c008042eb0024c0b300854178000001eb0094
:1052ac0088407800090078006b0e07009680a800f3
:1052bc004f04be000080fa00000006000000fa0057
:1052cc00889fbe008a9fbe0080057800810478000c
:1052dc0091ef8000008060000f003a00140037004e
:1052ec00090478000005eb0000e823000100200011
:1052fc00db0f07000804e90091ef80000b806000d1
:10530c0004003a000a05e8008a8f540004003200b9
:10531c00f5ff3700880478000900e00007003a0028
:10532c005f0107001000200090ef88000300370099
:10533c000900e000faff3200e9ff37004f05be001c
:10534c004f04be000080fa00000006000000fa00c6
:10535c00889fbe008a1f78008004780091ef80003f
:10536c000080600012003a00000478008a382100a6
:10537c000804e800000a200001002000b80f070014
:10538c0090ef80000900600003003a008a0f54007f
:10539c0004003200f6ff370070382100800f5400f3
:1053ac00030036003e0107001000200090ef88003b
:1053bc004f0578004f04be000080fa000000060084
:1053cc000000fa009680a900f23def0010c8b3006f
:1053dc001aff0700490e07000080fa0000000600c3
:1053ec000000fa00490e0700f23def009680a8007d
:1053fc000080fa00000006000000fa00881f780008
:10540c000044780030c0b3003eff0700c440dd000c
:10541c006f40600080c0700030c0b3006fff0700a9
:10542c004f0478000080fa00000006000000fa002b
:10543c00889fbe0090c2b30032ff0700f1ccb300ce
:10544c0001406000804078000144a00090c2b3008d
:10545c0062ff070010c1b3002aff070080447800e8
:10546c000974a0008940780010c1b3005bff0700ed
:10547c0000e8230001002000790f0700c0c2b30030
:10548c0020ff070000447800894078000174a100d7
:10549c0010c1b30051ff07006740640000c0e90071
:1054ac00e34f50000d0036000004eb000804e80048
:1054bc0040cab300e1fe07000010270021002000c5
:1054cc00670f0700a0c2b3000eff07000018a3006f
:1054dc0002003a00e30f5400f4ff3a004f04be0000
:1054ec000080fa00000006000400fa00889fbe004d
:1054fc008a9fbe00004478000205be000040eb000d
:10550c0000ff070080447800804078000104a1006f
:10551c000040eb0031ff0700f74f54005a003a00ef
:10552c000e01780031c0b30008407800dcfe0700a3
:10553c001e447800880078000107b20000052000a6
:10554c00808f50000e00320004003c0070005000b0
:10555c00808f50004c003a000700370000062000f6
:10556c00808f50000800320070004000808f500087
:10557c0045003a0032003700d007200031003700d8
:10558c00400620002f003700200320002d0037009c
:10559c001204b0008301e80084005100030178007c
:1055ac0004022000f5fd2f0000fe2f00848f500018
:1055bc00020036008301e90085804000ff8f500017
:1055cc00040036000201e90080804000ff8f50008b
:1055dc00f6ff3e00f08f50000300360000fe2f0057
:1055ec00808040000201e90081815100028140006d
:1055fc0001cfb300814064004610de006f406000b4
:10560c0000cf70004211dd004818de0063406000de
:10561c0000417100124798002347980032c0b30034
:10562c008e00780070c1b300d4fe07007fff070026
:10563c00894078000040eb00e8fe070012003700bc
:10564c00900120006101b8000a00be003dec07008b
:10565c000002be004a09dd004600de0000007100b9
:10566c00c608de00f2ff2300820160004618dd0050
:10567c00008141006110b800800f5200818f5a00e8
:10568c00c3ff3e00c4ff37004f05be004f04be00f1
:10569c000080fa00000006000000fa00881f780065
:1056ac00cdc2bf000058a300340032009680a90080
:1056bc008680a9000040eb0092fe07009cfdb7001d
:1056cc00c1cfb300814060000040eb00c3fe070077
:1056dc0018c0b30002003700ef4f54000500320031
:1056ec000840780087fe07000881fb00c1d9210023
:1056fc0000f178000844e800fc4f5400f6ff360037
:10570c0020c2b3007ffe0700b9fdb70090c2b30002
:10571c007cfe0700bafdb70050c3b30079fe07004a
:10572c00bbfdb70060c3b30076fe0700bcfdb7003d
:10573c00c0c3b30073fe0700bdfdb700a0c3b30028
:10574c0070fe0700befdb700381f200006003700b2
:10575c0000e8230001002000c10e07000804e90046
:10576c00e10f440004003200a0c2b30065fe070044
:10577c000028a300f6ff3a00cda2a9004f04780040
:10578c000080fa00000006000000fa00881f780074
:10579c00cdc2bf0001c2b300014460003d003a001d
:1057ac00cda2a800000a200001002000ac0e0700ca
:1057bc0083000700c1d9210091407800c0cfb3000d
:1057cc0080c060000840780084fe070018c0b30059
:1057dc0002003700ef4f5400050032000880fb0038
:1057ec00c1d92100e0c07800084078007bfe07009a
:1057fc000844e800fc4f5400f6ff360091db210012
:10580c009140780020c2b30074fe0700a1db210098
:10581c009140780090c2b30070fe0700b1db21000c
:10582c009140780050c3b3006cfe0700c1db21002f
:10583c009140780060c3b30068fe0700d1db210003
:10584c0091407800c0c3b30064fe0700e1db210087
:10585c009140780000cfb30080c06000a0c3b300bb
:10586c005efe0700002c2100010020007c0e0700ca
:10587c00eefe0700c1d92100914078000040eb00fa
:10588c0056fe0700a0c2b3001efe07008680a900ca
:10589c009680a8004f0478000080fa0000000600f3
:1058ac000000fa007cff070000e823000100200044
:1058bc006b0e0700b4ff07000080fa000000060022
:1058cc000000fa00cda2a90000e82300010020008e
:1058dc00630e0700cda2a800000a200001002000e2
:1058ec005f0e0700360007000080fa00000006007b
:1058fc000000fa00a4ff07000040eb0001fe0700c7
:10590c00804078000174a1000040eb0033fe0700da
:10591c000040eb004d0007000080fa00000006007c
:10592c000000fa000080fa00000006000000fa00f7
:10593c0095ff07000040eb00f2fd07008040780067
:10594c000174a1000040eb0024fe070010c0b3005e
:10595c003e0007000080fa00000006000000fa007c
:10596c000080fa00000006000000fa0086ff070025
:10597c000040eb00350007000040eb00e1fd0700a4
:10598c00804078000174a0000040eb0013fe07007b
:10599c000080fa00000006000000fa007aff070001
:1059ac000040eb00d7fd0700804078000174a10097
:1059bc000040eb0009fe07000080fa000000060022
:1059cc000200fa00889fbe008a9fbe008004eb0094
:1059dc000bc6b300ba0f20008dfd07000044780001
:1059ec00a0c2b300c7fd0700804078008904e8001e
:1059fc0002c6b300024064008b4f500002003a0014
:105a0c000108a30002003a008a8f5400f2ff3a000a
:105a1c0000f4210001002000110e07000e01780097
:105a2c0021c0b30070c3b3009dfd0700f23def0031
